{
  "_format": "hh-sol-artifact-1",
  "contractName": "Escrow",
  "sourceName": "contracts/Escrow.sol",
  "abi": [
    {
      "inputs": [
        {
          "internalType": "address",
          "name": "_arbiter",
          "type": "address"
        },
        {
          "internalType": "address",
          "name": "_beneficiary",
          "type": "address"
        }
      ],
      "stateMutability": "payable",
      "type": "constructor"
    },
    {
      "inputs": [],
      "name": "approve",
      "outputs": [],
      "stateMutability": "nonpayable",
      "type": "function"
    },
    {
      "stateMutability": "payable",
      "type": "receive"
    }
  ],
  "bytecode": "0x608060405273dcd33426ba191383f1c9b431a342498fdac73488600460006101000a81548173ffffffffffffffffffffffffffffffffffffffff021916908373ffffffffffffffffffffffffffffffffffffffff16021790555073030ba81f1c18d280636f32af80b9aad02cf0854e600560006101000a81548173ffffffffffffffffffffffffffffffffffffffff021916908373ffffffffffffffffffffffffffffffffffffffff160217905550604051610743380380610743833981810160405260408110156100d057600080fd5b810190808051906020019092919080519060200190929190505050816000806101000a81548173ffffffffffffffffffffffffffffffffffffffff021916908373ffffffffffffffffffffffffffffffffffffffff16021790555080600260006101000a81548173ffffffffffffffffffffffffffffffffffffffff021916908373ffffffffffffffffffffffffffffffffffffffff16021790555033600160006101000a81548173ffffffffffffffffffffffffffffffffffffffff021916908373ffffffffffffffffffffffffffffffffffffffff16021790555034600381905550600460009054906101000a900473ffffffffffffffffffffffffffffffffffffffff1673ffffffffffffffffffffffffffffffffffffffff166358c22be76003543060006040518463ffffffff1660e01b8152600401808373ffffffffffffffffffffffffffffffffffffffff1681526020018261ffff168152602001925050506000604051808303818588803b15801561024e57600080fd5b505af1158015610262573d6000803e3d6000fd5b505050505050506104cb806102786000396000f3fe6080604052600436106100225760003560e01c806312424e3f14610102576100fd565b366100fd57600260009054906101000a900473ffffffffffffffffffffffffffffffffffffffff1673ffffffffffffffffffffffffffffffffffffffff166108fc6003549081150290604051600060405180830381858888f19350505050158015610091573d6000803e3d6000fd5b50600160009054906101000a900473ffffffffffffffffffffffffffffffffffffffff1673ffffffffffffffffffffffffffffffffffffffff166108fc479081150290604051600060405180830381858888f193505050501580156100fa573d6000803e3d6000fd5b50005b600080fd5b34801561010e57600080fd5b50610117610119565b005b60008054906101000a900473ffffffffffffffffffffffffffffffffffffffff1673ffffffffffffffffffffffffffffffffffffffff163373ffffffffffffffffffffffffffffffffffffffff161461017157600080fd5b600560009054906101000a900473ffffffffffffffffffffffffffffffffffffffff1673ffffffffffffffffffffffffffffffffffffffff1663095ea7b3600460009054906101000a900473ffffffffffffffffffffffffffffffffffffffff16600560009054906101000a900473ffffffffffffffffffffffffffffffffffffffff1673ffffffffffffffffffffffffffffffffffffffff166370a08231306040518263ffffffff1660e01b8152600401808273ffffffffffffffffffffffffffffffffffffffff16815260200191505060206040518083038186803b15801561025b57600080fd5b505afa15801561026f573d6000803e3d6000fd5b505050506040513d602081101561028557600080fd5b81019080805190602001909291905050506040518363ffffffff1660e01b8152600401808373ffffffffffffffffffffffffffffffffffffffff16815260200182815260200192505050602060405180830381600087803b1580156102e957600080fd5b505af11580156102fd573d6000803e3d6000fd5b505050506040513d602081101561031357600080fd5b810190808051906020019092919050505050600460009054906101000a900473ffffffffffffffffffffffffffffffffffffffff1673ffffffffffffffffffffffffffffffffffffffff166336118b52600560009054906101000a900473ffffffffffffffffffffffffffffffffffffffff1673ffffffffffffffffffffffffffffffffffffffff166370a08231306040518263ffffffff1660e01b8152600401808273ffffffffffffffffffffffffffffffffffffffff16815260200191505060206040518083038186803b1580156103ec57600080fd5b505afa158015610400573d6000803e3d6000fd5b505050506040513d602081101561041657600080fd5b8101908080519060200190929190505050306040518363ffffffff1660e01b8152600401808381526020018273ffffffffffffffffffffffffffffffffffffffff16815260200192505050600060405180830381600087803b15801561047b57600080fd5b505af115801561048f573d6000803e3d6000fd5b5050505056fea26469706673582212200299854fb8bd9c8b19e4a4f04a4ebd2597fe6a2b37cf240dc87918efa6579b5a64736f6c63430007050033",
  "linkReferences": {},
  "deployedLinkReferences": {}
}