{
  "_format": "hh-sol-artifact-1",
  "contractName": "SurveyFactory",
  "sourceName": "contracts/SurveyFactory.sol",
  "abi": [
    {
      "inputs": [
        {
          "internalType": "uint256",
          "name": "_surveyCreationFees",
          "type": "uint256"
        }
      ],
      "stateMutability": "nonpayable",
      "type": "constructor"
    },
    {
      "anonymous": false,
      "inputs": [
        {
          "indexed": true,
          "internalType": "address",
          "name": "previousOwner",
          "type": "address"
        },
        {
          "indexed": true,
          "internalType": "address",
          "name": "newOwner",
          "type": "address"
        }
      ],
      "name": "OwnershipTransferred",
      "type": "event"
    },
    {
      "anonymous": false,
      "inputs": [
        {
          "indexed": true,
          "internalType": "address",
          "name": "owner",
          "type": "address"
        },
        {
          "indexed": true,
          "internalType": "uint256",
          "name": "surveyId",
          "type": "uint256"
        },
        {
          "indexed": true,
          "internalType": "address",
          "name": "surveyAddress",
          "type": "address"
        }
      ],
      "name": "SurveyCreated",
      "type": "event"
    },
    {
      "anonymous": false,
      "inputs": [
        {
          "indexed": true,
          "internalType": "uint256",
          "name": "surveyCreationFees",
          "type": "uint256"
        }
      ],
      "name": "SurveyFactoryInitialized",
      "type": "event"
    },
    {
      "inputs": [],
      "name": "createSurvey",
      "outputs": [
        {
          "internalType": "uint256",
          "name": "surveyId",
          "type": "uint256"
        },
        {
          "internalType": "address",
          "name": "newSurveyAddress",
          "type": "address"
        }
      ],
      "stateMutability": "payable",
      "type": "function"
    },
    {
      "inputs": [],
      "name": "getAllSurveys",
      "outputs": [
        {
          "internalType": "address[]",
          "name": "",
          "type": "address[]"
        }
      ],
      "stateMutability": "view",
      "type": "function"
    },
    {
      "inputs": [],
      "name": "owner",
      "outputs": [
        {
          "internalType": "address",
          "name": "",
          "type": "address"
        }
      ],
      "stateMutability": "view",
      "type": "function"
    },
    {
      "inputs": [],
      "name": "renounceOwnership",
      "outputs": [],
      "stateMutability": "nonpayable",
      "type": "function"
    },
    {
      "inputs": [],
      "name": "surveyCreationFees",
      "outputs": [
        {
          "internalType": "uint256",
          "name": "",
          "type": "uint256"
        }
      ],
      "stateMutability": "view",
      "type": "function"
    },
    {
      "inputs": [
        {
          "internalType": "address",
          "name": "",
          "type": "address"
        }
      ],
      "name": "surveyOwners",
      "outputs": [
        {
          "internalType": "address",
          "name": "owner",
          "type": "address"
        },
        {
          "internalType": "uint256",
          "name": "id",
          "type": "uint256"
        }
      ],
      "stateMutability": "view",
      "type": "function"
    },
    {
      "inputs": [
        {
          "internalType": "uint256",
          "name": "",
          "type": "uint256"
        }
      ],
      "name": "surveys",
      "outputs": [
        {
          "internalType": "address",
          "name": "",
          "type": "address"
        }
      ],
      "stateMutability": "view",
      "type": "function"
    },
    {
      "inputs": [
        {
          "internalType": "address",
          "name": "newOwner",
          "type": "address"
        }
      ],
      "name": "transferOwnership",
      "outputs": [],
      "stateMutability": "nonpayable",
      "type": "function"
    }
  ],
  "bytecode": "0x608060405234801561001057600080fd5b5060405161141f38038061141f83398181016040528101906100329190610139565b600061004261011c60201b60201c565b9050806000806101000a81548173ffffffffffffffffffffffffffffffffffffffff021916908373ffffffffffffffffffffffffffffffffffffffff1602179055508073ffffffffffffffffffffffffffffffffffffffff16600073ffffffffffffffffffffffffffffffffffffffff167f8be0079c531659141344cd1fd0a4f28419497f9722a3daafe3b4186f6b6457e060405160405180910390a350806001819055506001547ff184369f39717f266f1bf357eb0874181686f3e1fc282ae9605ba4bfd30635bb60405160405180910390a250610183565b600033905090565b6000815190506101338161016c565b92915050565b60006020828403121561014b57600080fd5b600061015984828501610124565b91505092915050565b6000819050919050565b61017581610162565b811461018057600080fd5b50565b61128d806101926000396000f3fe608060405260043610620000865760003560e01c80638da5cb5b11620000555780638da5cb5b146200015e578063a934bafe146200018e578063c65dfc9f14620001be578063f2fde38b14620001e15762000086565b806334819bdc146200008b578063715018a614620000d05780637a1bc37514620000ea57806386e68b90146200011a575b600080fd5b3480156200009857600080fd5b50620000b76004803603810190620000b1919062000937565b6200020f565b604051620000c792919062000b91565b60405180910390f35b348015620000dd57600080fd5b50620000e862000253565b005b348015620000f757600080fd5b506200010262000394565b60405162000111919062000bbe565b60405180910390f35b3480156200012757600080fd5b5062000146600480360381019062000140919062000963565b62000424565b60405162000155919062000b74565b60405180910390f35b3480156200016b57600080fd5b506200017662000464565b60405162000185919062000b74565b60405180910390f35b3480156200019b57600080fd5b50620001a66200048d565b604051620001b5919062000c6a565b60405180910390f35b620001c862000493565b604051620001d892919062000c87565b60405180910390f35b348015620001ee57600080fd5b506200020d600480360381019062000207919062000937565b62000740565b005b60036020528060005260406000206000915090508060000160009054906101000a900473ffffffffffffffffffffffffffffffffffffffff16908060010154905082565b6200025d620008f3565b73ffffffffffffffffffffffffffffffffffffffff166200027d62000464565b73ffffffffffffffffffffffffffffffffffffffff1614620002d6576040517f08c379a0000000000000000000000000000000000000000000000000000000008152600401620002cd9062000c26565b60405180910390fd5b600073ffffffffffffffffffffffffffffffffffffffff1660008054906101000a900473ffffffffffffffffffffffffffffffffffffffff1673ffffffffffffffffffffffffffffffffffffffff167f8be0079c531659141344cd1fd0a4f28419497f9722a3daafe3b4186f6b6457e060405160405180910390a360008060006101000a81548173ffffffffffffffffffffffffffffffffffffffff021916908373ffffffffffffffffffffffffffffffffffffffff160217905550565b606060028054806020026020016040519081016040528092919081815260200182805480156200041a57602002820191906000526020600020905b8160009054906101000a900473ffffffffffffffffffffffffffffffffffffffff1673ffffffffffffffffffffffffffffffffffffffff1681526020019060010190808311620003cf575b5050505050905090565b600281815481106200043557600080fd5b906000526020600020016000915054906101000a900473ffffffffffffffffffffffffffffffffffffffff1681565b60008060009054906101000a900473ffffffffffffffffffffffffffffffffffffffff16905090565b60015481565b600080620004a062000464565b73ffffffffffffffffffffffffffffffffffffffff163373ffffffffffffffffffffffffffffffffffffffff16141562000511576040517f08c379a0000000000000000000000000000000000000000000000000000000008152600401620005089062000c04565b60405180910390fd5b600154341162000558576040517f08c379a00000000000000000000000000000000000000000000000000000000081526004016200054f9062000c48565b60405180910390fd5b6000600154346200056a919062000cfe565b336040516200057990620008fb565b62000585919062000b74565b6040518091039082f0905080158015620005a3573d6000803e3d6000fd5b5090508091506002829080600181540180825580915050600190039060005260206000200160009091909190916101000a81548173ffffffffffffffffffffffffffffffffffffffff021916908373ffffffffffffffffffffffffffffffffffffffff160217905550600160028054905062000620919062000cfe565b925060405180604001604052803373ffffffffffffffffffffffffffffffffffffffff16815260200184815250600360008473ffffffffffffffffffffffffffffffffffffffff1673ffffffffffffffffffffffffffffffffffffffff16815260200190815260200160002060008201518160000160006101000a81548173ffffffffffffffffffffffffffffffffffffffff021916908373ffffffffffffffffffffffffffffffffffffffff160217905550602082015181600101559050508173ffffffffffffffffffffffffffffffffffffffff16833373ffffffffffffffffffffffffffffffffffffffff167f4fc6e968dd0adb70735b85cd0ae0a00f84780b7dac7193d01caa4418b3432b9260405160405180910390a4509091565b6200074a620008f3565b73ffffffffffffffffffffffffffffffffffffffff166200076a62000464565b73ffffffffffffffffffffffffffffffffffffffff1614620007c3576040517f08c379a0000000000000000000000000000000000000000000000000000000008152600401620007ba9062000c26565b60405180910390fd5b600073ffffffffffffffffffffffffffffffffffffffff168173ffffffffffffffffffffffffffffffffffffffff16141562000836576040517f08c379a00000000000000000000000000000000000000000000000000000000081526004016200082d9062000be2565b60405180910390fd5b8073ffffffffffffffffffffffffffffffffffffffff1660008054906101000a900473ffffffffffffffffffffffffffffffffffffffff1673ffffffffffffffffffffffffffffffffffffffff167f8be0079c531659141344cd1fd0a4f28419497f9722a3daafe3b4186f6b6457e060405160405180910390a3806000806101000a81548173ffffffffffffffffffffffffffffffffffffffff021916908373ffffffffffffffffffffffffffffffffffffffff16021790555050565b600033905090565b61047d8062000ddb83390190565b6000813590506200091a8162000da6565b92915050565b600081359050620009318162000dc0565b92915050565b6000602082840312156200094a57600080fd5b60006200095a8482850162000909565b91505092915050565b6000602082840312156200097657600080fd5b6000620009868482850162000920565b91505092915050565b60006200099d8383620009a9565b60208301905092915050565b620009b48162000d39565b82525050565b620009c58162000d39565b82525050565b6000620009d88262000cc4565b620009e4818562000cdc565b9350620009f18362000cb4565b8060005b8381101562000a2857815162000a0c88826200098f565b975062000a198362000ccf565b925050600181019050620009f5565b5085935050505092915050565b600062000a4460268362000ced565b91507f4f776e61626c653a206e6577206f776e657220697320746865207a65726f206160008301527f64647265737300000000000000000000000000000000000000000000000000006020830152604082019050919050565b600062000aac60198362000ced565b91507f537572766579466163746f72793a2072657374726963746564000000000000006000830152602082019050919050565b600062000aee60208362000ced565b91507f4f776e61626c653a2063616c6c6572206973206e6f7420746865206f776e65726000830152602082019050919050565b600062000b3060208362000ced565b91507f537572766579466163746f72793a204e6f7420656e6f756768206574686572736000830152602082019050919050565b62000b6e8162000d6d565b82525050565b600060208201905062000b8b6000830184620009ba565b92915050565b600060408201905062000ba86000830185620009ba565b62000bb7602083018462000b63565b9392505050565b6000602082019050818103600083015262000bda8184620009cb565b905092915050565b6000602082019050818103600083015262000bfd8162000a35565b9050919050565b6000602082019050818103600083015262000c1f8162000a9d565b9050919050565b6000602082019050818103600083015262000c418162000adf565b9050919050565b6000602082019050818103600083015262000c638162000b21565b9050919050565b600060208201905062000c81600083018462000b63565b92915050565b600060408201905062000c9e600083018562000b63565b62000cad6020830184620009ba565b9392505050565b6000819050602082019050919050565b600081519050919050565b6000602082019050919050565b600082825260208201905092915050565b600082825260208201905092915050565b600062000d0b8262000d6d565b915062000d188362000d6d565b92508282101562000d2e5762000d2d62000d77565b5b828203905092915050565b600062000d468262000d4d565b9050919050565b600073ffffffffffffffffffffffffffffffffffffffff82169050919050565b6000819050919050565b7f4e487b7100000000000000000000000000000000000000000000000000000000600052601160045260246000fd5b62000db18162000d39565b811462000dbd57600080fd5b50565b62000dcb8162000d6d565b811462000dd757600080fd5b5056fe608060405260405161047d38038061047d833981810160405281019061002591906101d8565b600073ffffffffffffffffffffffffffffffffffffffff168173ffffffffffffffffffffffffffffffffffffffff161415610095576040517f08c379a000000000000000000000000000000000000000000000000000000000815260040161008c90610281565b60405180910390fd5b600034116100d8576040517f08c379a00000000000000000000000000000000000000000000000000000000081526004016100cf906102a1565b60405180910390fd5b806000806101000a81548173ffffffffffffffffffffffffffffffffffffffff021916908373ffffffffffffffffffffffffffffffffffffffff16021790555033600160006101000a81548173ffffffffffffffffffffffffffffffffffffffff021916908373ffffffffffffffffffffffffffffffffffffffff1602179055503460008054906101000a900473ffffffffffffffffffffffffffffffffffffffff1673ffffffffffffffffffffffffffffffffffffffff167f51cc12d146311daa1c27922fa9e4d8ab1b86db5194fa326537b50d6659ef84d160405160405180910390a35061031b565b6000815190506101d281610304565b92915050565b6000602082840312156101ea57600080fd5b60006101f8848285016101c3565b91505092915050565b600061020e601c836102c1565b91507f5375727665793a496e76616c6964206f776e65722061646472657373000000006000830152602082019050919050565b600061024e601f836102c1565b91507f5375727665793a20616d6f756e7420677265746572207468616e207a65726f006000830152602082019050919050565b6000602082019050818103600083015261029a81610201565b9050919050565b600060208201905081810360008301526102ba81610241565b9050919050565b600082825260208201905092915050565b60006102dd826102e4565b9050919050565b600073ffffffffffffffffffffffffffffffffffffffff82169050919050565b61030d816102d2565b811461031857600080fd5b50565b6101538061032a6000396000f3fe608060405234801561001057600080fd5b50600436106100365760003560e01c80638da5cb5b1461003b578063c45a015514610059575b600080fd5b610043610077565b60405161005091906100d0565b60405180910390f35b61006161009b565b60405161006e91906100d0565b60405180910390f35b60008054906101000a900473ffffffffffffffffffffffffffffffffffffffff1681565b600160009054906101000a900473ffffffffffffffffffffffffffffffffffffffff1681565b6100ca816100eb565b82525050565b60006020820190506100e560008301846100c1565b92915050565b60006100f6826100fd565b9050919050565b600073ffffffffffffffffffffffffffffffffffffffff8216905091905056fea26469706673582212203e00f8d6425e1f0f96e167b5013116844059ecfdffe7e921c60f6845c1b7726a64736f6c63430008000033a2646970667358221220d6c5796b76d6d55dde77ab995a5e37bf06669e44469872a0d28cfb4f6c66abb064736f6c63430008000033",
  "linkReferences": {},
  "deployedLinkReferences": {}
}