{
  "_format": "hh-sol-artifact-1",
  "contractName": "Token",
  "sourceName": "contracts/Token.sol",
  "abi": [
    {
      "inputs": [],
      "stateMutability": "nonpayable",
      "type": "constructor"
    },
    {
      "inputs": [
        {
          "internalType": "address",
          "name": "",
          "type": "address"
        }
      ],
      "name": "balances",
      "outputs": [
        {
          "internalType": "uint256",
          "name": "",
          "type": "uint256"
        }
      ],
      "stateMutability": "view",
      "type": "function"
    },
    {
      "inputs": [],
      "name": "name",
      "outputs": [
        {
          "internalType": "string",
          "name": "",
          "type": "string"
        }
      ],
      "stateMutability": "view",
      "type": "function"
    },
    {
      "inputs": [],
      "name": "owner",
      "outputs": [
        {
          "internalType": "address",
          "name": "",
          "type": "address"
        }
      ],
      "stateMutability": "view",
      "type": "function"
    },
    {
      "inputs": [],
      "name": "symbol",
      "outputs": [
        {
          "internalType": "string",
          "name": "",
          "type": "string"
        }
      ],
      "stateMutability": "view",
      "type": "function"
    },
    {
      "inputs": [],
      "name": "totalSupply",
      "outputs": [
        {
          "internalType": "uint256",
          "name": "",
          "type": "uint256"
        }
      ],
      "stateMutability": "view",
      "type": "function"
    },
    {
      "inputs": [
        {
          "internalType": "address",
          "name": "_to",
          "type": "address"
        },
        {
          "internalType": "uint256",
          "name": "_amount",
          "type": "uint256"
        }
      ],
      "name": "transfer",
      "outputs": [],
      "stateMutability": "nonpayable",
      "type": "function"
    }
  ],
  "bytecode": "0x60806040526040518060400160405280600981526020017f47424320546f6b656e00000000000000000000000000000000000000000000008152506000908051906020019061004f92919061013b565b506040518060400160405280600381526020017f47424300000000000000000000000000000000000000000000000000000000008152506001908051906020019061009b92919061013b565b506127106002553480156100ae57600080fd5b5033600360006101000a81548173ffffffffffffffffffffffffffffffffffffffff021916908373ffffffffffffffffffffffffffffffffffffffff160217905550600254600460003373ffffffffffffffffffffffffffffffffffffffff1673ffffffffffffffffffffffffffffffffffffffff1681526020019081526020016000208190555061023f565b828054610147906101de565b90600052602060002090601f01602090048101928261016957600085556101b0565b82601f1061018257805160ff19168380011785556101b0565b828001600101855582156101b0579182015b828111156101af578251825591602001919060010190610194565b5b5090506101bd91906101c1565b5090565b5b808211156101da5760008160009055506001016101c2565b5090565b600060028204905060018216806101f657607f821691505b6020821081141561020a57610209610210565b5b50919050565b7f4e487b7100000000000000000000000000000000000000000000000000000000600052602260045260246000fd5b6109238061024e6000396000f3fe608060405234801561001057600080fd5b50600436106100625760003560e01c806306fdde031461006757806318160ddd1461008557806327e235e3146100a35780638da5cb5b146100d357806395d89b41146100f1578063a9059cbb1461010f575b600080fd5b61006f61012b565b60405161007c919061065e565b60405180910390f35b61008d6101b9565b60405161009a91906106ee565b60405180910390f35b6100bd60048036038101906100b89190610587565b6101bf565b6040516100ca91906106ee565b60405180910390f35b6100db6101d7565b6040516100e89190610643565b60405180910390f35b6100f96101fd565b604051610106919061065e565b60405180910390f35b610129600480360381019061012491906105b0565b61028b565b005b600080546101389061081e565b80601f01602080910402602001604051908101604052809291908181526020018280546101649061081e565b80156101b15780601f10610186576101008083540402835291602001916101b1565b820191906000526020600020905b81548152906001019060200180831161019457829003601f168201915b505050505081565b60025481565b60046020528060005260406000206000915090505481565b600360009054906101000a900473ffffffffffffffffffffffffffffffffffffffff1681565b6001805461020a9061081e565b80601f01602080910402602001604051908101604052809291908181526020018280546102369061081e565b80156102835780601f1061025857610100808354040283529160200191610283565b820191906000526020600020905b81548152906001019060200180831161026657829003601f168201915b505050505081565b6103096040518060400160405280601b81526020017f53656e6465722062616c616e636520697320257320746f6b656e730000000000815250600460003373ffffffffffffffffffffffffffffffffffffffff1673ffffffffffffffffffffffffffffffffffffffff168152602001908152602001600020546103f9565b6103496040518060400160405280601e81526020017f547279696e6720746f2073656e6420257320746f6b656e7320746f20257300008152508284610495565b80600460003373ffffffffffffffffffffffffffffffffffffffff1673ffffffffffffffffffffffffffffffffffffffff1681526020019081526020016000206000828254610398919061077b565b9250508190555080600460008473ffffffffffffffffffffffffffffffffffffffff1673ffffffffffffffffffffffffffffffffffffffff16815260200190815260200160002060008282546103ee9190610725565b925050819055505050565b610491828260405160240161040f929190610680565b6040516020818303038152906040527f9710a9d0000000000000000000000000000000000000000000000000000000007bffffffffffffffffffffffffffffffffffffffffffffffffffffffff19166020820180517bffffffffffffffffffffffffffffffffffffffffffffffffffffffff8381831617835250505050610534565b5050565b61052f8383836040516024016104ad939291906106b0565b6040516020818303038152906040527fe3849f79000000000000000000000000000000000000000000000000000000007bffffffffffffffffffffffffffffffffffffffffffffffffffffffff19166020820180517bffffffffffffffffffffffffffffffffffffffffffffffffffffffff8381831617835250505050610534565b505050565b60008151905060006a636f6e736f6c652e6c6f679050602083016000808483855afa5050505050565b60008135905061056c816108bf565b92915050565b600081359050610581816108d6565b92915050565b60006020828403121561059957600080fd5b60006105a78482850161055d565b91505092915050565b600080604083850312156105c357600080fd5b60006105d18582860161055d565b92505060206105e285828601610572565b9150509250929050565b6105f5816107af565b82525050565b600061060682610709565b6106108185610714565b93506106208185602086016107eb565b610629816108ae565b840191505092915050565b61063d816107e1565b82525050565b600060208201905061065860008301846105ec565b92915050565b6000602082019050818103600083015261067881846105fb565b905092915050565b6000604082019050818103600083015261069a81856105fb565b90506106a96020830184610634565b9392505050565b600060608201905081810360008301526106ca81866105fb565b90506106d96020830185610634565b6106e660408301846105ec565b949350505050565b60006020820190506107036000830184610634565b92915050565b600081519050919050565b600082825260208201905092915050565b6000610730826107e1565b915061073b836107e1565b9250827fffffffffffffffffffffffffffffffffffffffffffffffffffffffffffffffff038211156107705761076f610850565b5b828201905092915050565b6000610786826107e1565b9150610791836107e1565b9250828210156107a4576107a3610850565b5b828203905092915050565b60006107ba826107c1565b9050919050565b600073ffffffffffffffffffffffffffffffffffffffff82169050919050565b6000819050919050565b60005b838110156108095780820151818401526020810190506107ee565b83811115610818576000848401525b50505050565b6000600282049050600182168061083657607f821691505b6020821081141561084a5761084961087f565b5b50919050565b7f4e487b7100000000000000000000000000000000000000000000000000000000600052601160045260246000fd5b7f4e487b7100000000000000000000000000000000000000000000000000000000600052602260045260246000fd5b6000601f19601f8301169050919050565b6108c8816107af565b81146108d357600080fd5b50565b6108df816107e1565b81146108ea57600080fd5b5056fea264697066735822122029b4d3391eef3c89ea2ea9c8d742face92f84014f00c3b09e41bb7032903afb864736f6c63430008030033",
  "linkReferences": {},
  "deployedLinkReferences": {}
}