{
  "_format": "hh-sol-artifact-1",
  "contractName": "FlashVoter",
  "sourceName": "contracts/FlashVoter.sol",
  "abi": [
    {
      "inputs": [
        {
          "internalType": "contract Govern",
          "name": "_governanceToken",
          "type": "address"
        },
        {
          "internalType": "uint256",
          "name": "_proposalId",
          "type": "uint256"
        }
      ],
      "stateMutability": "nonpayable",
      "type": "constructor"
    },
    {
      "inputs": [
        {
          "internalType": "address[]",
          "name": "",
          "type": "address[]"
        },
        {
          "internalType": "uint256[]",
          "name": "amounts",
          "type": "uint256[]"
        },
        {
          "internalType": "uint256[]",
          "name": "premiums",
          "type": "uint256[]"
        },
        {
          "internalType": "address",
          "name": "",
          "type": "address"
        },
        {
          "internalType": "bytes",
          "name": "",
          "type": "bytes"
        }
      ],
      "name": "executeOperation",
      "outputs": [
        {
          "internalType": "bool",
          "name": "",
          "type": "bool"
        }
      ],
      "stateMutability": "nonpayable",
      "type": "function"
    },
    {
      "inputs": [],
      "name": "flashVote",
      "outputs": [],
      "stateMutability": "nonpayable",
      "type": "function"
    },
    {
      "inputs": [],
      "name": "governanceToken",
      "outputs": [
        {
          "internalType": "contract Govern",
          "name": "",
          "type": "address"
        }
      ],
      "stateMutability": "view",
      "type": "function"
    },
    {
      "inputs": [],
      "name": "proposalId",
      "outputs": [
        {
          "internalType": "uint256",
          "name": "",
          "type": "uint256"
        }
      ],
      "stateMutability": "view",
      "type": "function"
    }
  ],
  "bytecode": "0x608060405234801561001057600080fd5b50604051610a6c380380610a6c8339818101604052604081101561003357600080fd5b810190808051906020019092919080519060200190929190505050816000806101000a81548173ffffffffffffffffffffffffffffffffffffffff021916908373ffffffffffffffffffffffffffffffffffffffff1602179055508060018190555050506109c6806100a66000396000f3fe608060405234801561001057600080fd5b506004361061004c5760003560e01c80632dfca44514610051578063920f5c841461006f578063983af4ca1461021d578063f96dae0a14610227575b600080fd5b61005961025b565b6040518082815260200191505060405180910390f35b610205600480360360a081101561008557600080fd5b81019080803590602001906401000000008111156100a257600080fd5b8201836020820111156100b457600080fd5b803590602001918460208302840111640100000000831117156100d657600080fd5b9091929391929390803590602001906401000000008111156100f757600080fd5b82018360208201111561010957600080fd5b8035906020019184602083028401116401000000008311171561012b57600080fd5b90919293919293908035906020019064010000000081111561014c57600080fd5b82018360208201111561015e57600080fd5b8035906020019184602083028401116401000000008311171561018057600080fd5b9091929391929390803573ffffffffffffffffffffffffffffffffffffffff169060200190929190803590602001906401000000008111156101c157600080fd5b8201836020820111156101d357600080fd5b803590602001918460018302840111640100000000831117156101f557600080fd5b9091929391929390505050610261565b60405180821515815260200191505060405180910390f35b610225610639565b005b61022f61096c565b604051808273ffffffffffffffffffffffffffffffffffffffff16815260200191505060405180910390f35b60015481565b6000736b175474e89094c44da98b954eedeac495271d0f73ffffffffffffffffffffffffffffffffffffffff1663095ea7b360008054906101000a900473ffffffffffffffffffffffffffffffffffffffff168a8a60008181106102c157fe5b905060200201356040518363ffffffff1660e01b8152600401808373ffffffffffffffffffffffffffffffffffffffff16815260200182815260200192505050602060405180830381600087803b15801561031b57600080fd5b505af115801561032f573d6000803e3d6000fd5b505050506040513d602081101561034557600080fd5b81019080805190602001909291905050505060008054906101000a900473ffffffffffffffffffffffffffffffffffffffff1673ffffffffffffffffffffffffffffffffffffffff1663d96a094a898960008181106103a057fe5b905060200201356040518263ffffffff1660e01b815260040180828152602001915050600060405180830381600087803b1580156103dd57600080fd5b505af11580156103f1573d6000803e3d6000fd5b5050505060008054906101000a900473ffffffffffffffffffffffffffffffffffffffff1673ffffffffffffffffffffffffffffffffffffffff1663c9d27afe60015460016040518363ffffffff1660e01b815260040180838152602001821515815260200192505050600060405180830381600087803b15801561047557600080fd5b505af1158015610489573d6000803e3d6000fd5b5050505060008054906101000a900473ffffffffffffffffffffffffffffffffffffffff1673ffffffffffffffffffffffffffffffffffffffff1663e4849b32898960008181106104d657fe5b905060200201356040518263ffffffff1660e01b815260040180828152602001915050600060405180830381600087803b15801561051357600080fd5b505af1158015610527573d6000803e3d6000fd5b50505050736b175474e89094c44da98b954eedeac495271d0f73ffffffffffffffffffffffffffffffffffffffff1663095ea7b3737d2768de32b0b80b7a3454c06bdac94a69ddc7a98888600081811061057d57fe5b905060200201358b8b600081811061059157fe5b90506020020135016040518363ffffffff1660e01b8152600401808373ffffffffffffffffffffffffffffffffffffffff16815260200182815260200192505050602060405180830381600087803b1580156105ec57600080fd5b505af1158015610600573d6000803e3d6000fd5b505050506040513d602081101561061657600080fd5b810190808051906020019092919050505050600190509998505050505050505050565b6060600167ffffffffffffffff8111801561065357600080fd5b506040519080825280602002602001820160405280156106825781602001602082028036833780820191505090505b509050736b175474e89094c44da98b954eedeac495271d0f816000815181106106a757fe5b602002602001019073ffffffffffffffffffffffffffffffffffffffff16908173ffffffffffffffffffffffffffffffffffffffff16815250506060600167ffffffffffffffff811180156106fb57600080fd5b5060405190808252806020026020018201604052801561072a5781602001602082028036833780820191505090505b50905069152d02c7e14af68000008160008151811061074557fe5b6020026020010181815250506060600167ffffffffffffffff8111801561076b57600080fd5b5060405190808252806020026020018201604052801561079a5781602001602082028036833780820191505090505b5090506000816000815181106107ac57fe5b602002602001018181525050737d2768de32b0b80b7a3454c06bdac94a69ddc7a973ffffffffffffffffffffffffffffffffffffffff1663ab9c4b5d308585856000806040518763ffffffff1660e01b8152600401808773ffffffffffffffffffffffffffffffffffffffff1681526020018060200180602001806020018673ffffffffffffffffffffffffffffffffffffffff168152602001806020018661ffff16815260200185810385528a818151815260200191508051906020019060200280838360005b8381101561088f578082015181840152602081019050610874565b50505050905001858103845289818151815260200191508051906020019060200280838360005b838110156108d15780820151818401526020810190506108b6565b50505050905001858103835288818151815260200191508051906020019060200280838360005b838110156109135780820151818401526020810190506108f8565b505050509050018581038252600081526020016020019a5050505050505050505050600060405180830381600087803b15801561094f57600080fd5b505af1158015610963573d6000803e3d6000fd5b50505050505050565b60008054906101000a900473ffffffffffffffffffffffffffffffffffffffff168156fea2646970667358221220dcc1d2179c5159fcfb872d9c3b1751b8444d6f49850ce133353e12e48b2b9a9664736f6c63430007050033",
  "linkReferences": {},
  "deployedLinkReferences": {}
}