{
  "contracts/SurveyFactory.sol": {
    "SurveyFactory": {
      "abi": [
        {
          "inputs": [
            {
              "internalType": "uint256",
              "name": "_surveyCreationFees",
              "type": "uint256"
            }
          ],
          "stateMutability": "nonpayable",
          "type": "constructor"
        },
        {
          "anonymous": false,
          "inputs": [
            {
              "indexed": true,
              "internalType": "address",
              "name": "previousOwner",
              "type": "address"
            },
            {
              "indexed": true,
              "internalType": "address",
              "name": "newOwner",
              "type": "address"
            }
          ],
          "name": "OwnershipTransferred",
          "type": "event"
        },
        {
          "anonymous": false,
          "inputs": [
            {
              "indexed": true,
              "internalType": "address",
              "name": "owner",
              "type": "address"
            },
            {
              "indexed": true,
              "internalType": "uint256",
              "name": "surveyId",
              "type": "uint256"
            },
            {
              "indexed": true,
              "internalType": "address",
              "name": "surveyAddress",
              "type": "address"
            }
          ],
          "name": "SurveyCreated",
          "type": "event"
        },
        {
          "anonymous": false,
          "inputs": [
            {
              "indexed": true,
              "internalType": "uint256",
              "name": "surveyCreationFees",
              "type": "uint256"
            }
          ],
          "name": "SurveyFactoryInitialized",
          "type": "event"
        },
        {
          "inputs": [],
          "name": "createSurvey",
          "outputs": [
            {
              "internalType": "uint256",
              "name": "surveyId",
              "type": "uint256"
            },
            {
              "internalType": "address",
              "name": "newSurveyAddress",
              "type": "address"
            }
          ],
          "stateMutability": "payable",
          "type": "function"
        },
        {
          "inputs": [],
          "name": "getAllSurveys",
          "outputs": [
            {
              "internalType": "address[]",
              "name": "",
              "type": "address[]"
            }
          ],
          "stateMutability": "view",
          "type": "function"
        },
        {
          "inputs": [],
          "name": "owner",
          "outputs": [
            {
              "internalType": "address",
              "name": "",
              "type": "address"
            }
          ],
          "stateMutability": "view",
          "type": "function"
        },
        {
          "inputs": [],
          "name": "renounceOwnership",
          "outputs": [],
          "stateMutability": "nonpayable",
          "type": "function"
        },
        {
          "inputs": [],
          "name": "surveyCreationFees",
          "outputs": [
            {
              "internalType": "uint256",
              "name": "",
              "type": "uint256"
            }
          ],
          "stateMutability": "view",
          "type": "function"
        },
        {
          "inputs": [
            {
              "internalType": "address",
              "name": "",
              "type": "address"
            }
          ],
          "name": "surveyOwners",
          "outputs": [
            {
              "internalType": "address",
              "name": "owner",
              "type": "address"
            },
            {
              "internalType": "uint256",
              "name": "id",
              "type": "uint256"
            }
          ],
          "stateMutability": "view",
          "type": "function"
        },
        {
          "inputs": [
            {
              "internalType": "uint256",
              "name": "",
              "type": "uint256"
            }
          ],
          "name": "surveys",
          "outputs": [
            {
              "internalType": "address",
              "name": "",
              "type": "address"
            }
          ],
          "stateMutability": "view",
          "type": "function"
        },
        {
          "inputs": [
            {
              "internalType": "address",
              "name": "newOwner",
              "type": "address"
            }
          ],
          "name": "transferOwnership",
          "outputs": [],
          "stateMutability": "nonpayable",
          "type": "function"
        }
      ],
      "evm": {
        "bytecode": {
          "linkReferences": {},
          "object": "608060405234801561001057600080fd5b5060405161141f38038061141f83398181016040528101906100329190610139565b600061004261011c60201b60201c565b9050806000806101000a81548173ffffffffffffffffffffffffffffffffffffffff021916908373ffffffffffffffffffffffffffffffffffffffff1602179055508073ffffffffffffffffffffffffffffffffffffffff16600073ffffffffffffffffffffffffffffffffffffffff167f8be0079c531659141344cd1fd0a4f28419497f9722a3daafe3b4186f6b6457e060405160405180910390a350806001819055506001547ff184369f39717f266f1bf357eb0874181686f3e1fc282ae9605ba4bfd30635bb60405160405180910390a250610183565b600033905090565b6000815190506101338161016c565b92915050565b60006020828403121561014b57600080fd5b600061015984828501610124565b91505092915050565b6000819050919050565b61017581610162565b811461018057600080fd5b50565b61128d806101926000396000f3fe608060405260043610620000865760003560e01c80638da5cb5b11620000555780638da5cb5b146200015e578063a934bafe146200018e578063c65dfc9f14620001be578063f2fde38b14620001e15762000086565b806334819bdc146200008b578063715018a614620000d05780637a1bc37514620000ea57806386e68b90146200011a575b600080fd5b3480156200009857600080fd5b50620000b76004803603810190620000b1919062000937565b6200020f565b604051620000c792919062000b91565b60405180910390f35b348015620000dd57600080fd5b50620000e862000253565b005b348015620000f757600080fd5b506200010262000394565b60405162000111919062000bbe565b60405180910390f35b3480156200012757600080fd5b5062000146600480360381019062000140919062000963565b62000424565b60405162000155919062000b74565b60405180910390f35b3480156200016b57600080fd5b506200017662000464565b60405162000185919062000b74565b60405180910390f35b3480156200019b57600080fd5b50620001a66200048d565b604051620001b5919062000c6a565b60405180910390f35b620001c862000493565b604051620001d892919062000c87565b60405180910390f35b348015620001ee57600080fd5b506200020d600480360381019062000207919062000937565b62000740565b005b60036020528060005260406000206000915090508060000160009054906101000a900473ffffffffffffffffffffffffffffffffffffffff16908060010154905082565b6200025d620008f3565b73ffffffffffffffffffffffffffffffffffffffff166200027d62000464565b73ffffffffffffffffffffffffffffffffffffffff1614620002d6576040517f08c379a0000000000000000000000000000000000000000000000000000000008152600401620002cd9062000c26565b60405180910390fd5b600073ffffffffffffffffffffffffffffffffffffffff1660008054906101000a900473ffffffffffffffffffffffffffffffffffffffff1673ffffffffffffffffffffffffffffffffffffffff167f8be0079c531659141344cd1fd0a4f28419497f9722a3daafe3b4186f6b6457e060405160405180910390a360008060006101000a81548173ffffffffffffffffffffffffffffffffffffffff021916908373ffffffffffffffffffffffffffffffffffffffff160217905550565b606060028054806020026020016040519081016040528092919081815260200182805480156200041a57602002820191906000526020600020905b8160009054906101000a900473ffffffffffffffffffffffffffffffffffffffff1673ffffffffffffffffffffffffffffffffffffffff1681526020019060010190808311620003cf575b5050505050905090565b600281815481106200043557600080fd5b906000526020600020016000915054906101000a900473ffffffffffffffffffffffffffffffffffffffff1681565b60008060009054906101000a900473ffffffffffffffffffffffffffffffffffffffff16905090565b60015481565b600080620004a062000464565b73ffffffffffffffffffffffffffffffffffffffff163373ffffffffffffffffffffffffffffffffffffffff16141562000511576040517f08c379a0000000000000000000000000000000000000000000000000000000008152600401620005089062000c04565b60405180910390fd5b600154341162000558576040517f08c379a00000000000000000000000000000000000000000000000000000000081526004016200054f9062000c48565b60405180910390fd5b6000600154346200056a919062000cfe565b336040516200057990620008fb565b62000585919062000b74565b6040518091039082f0905080158015620005a3573d6000803e3d6000fd5b5090508091506002829080600181540180825580915050600190039060005260206000200160009091909190916101000a81548173ffffffffffffffffffffffffffffffffffffffff021916908373ffffffffffffffffffffffffffffffffffffffff160217905550600160028054905062000620919062000cfe565b925060405180604001604052803373ffffffffffffffffffffffffffffffffffffffff16815260200184815250600360008473ffffffffffffffffffffffffffffffffffffffff1673ffffffffffffffffffffffffffffffffffffffff16815260200190815260200160002060008201518160000160006101000a81548173ffffffffffffffffffffffffffffffffffffffff021916908373ffffffffffffffffffffffffffffffffffffffff160217905550602082015181600101559050508173ffffffffffffffffffffffffffffffffffffffff16833373ffffffffffffffffffffffffffffffffffffffff167f4fc6e968dd0adb70735b85cd0ae0a00f84780b7dac7193d01caa4418b3432b9260405160405180910390a4509091565b6200074a620008f3565b73ffffffffffffffffffffffffffffffffffffffff166200076a62000464565b73ffffffffffffffffffffffffffffffffffffffff1614620007c3576040517f08c379a0000000000000000000000000000000000000000000000000000000008152600401620007ba9062000c26565b60405180910390fd5b600073ffffffffffffffffffffffffffffffffffffffff168173ffffffffffffffffffffffffffffffffffffffff16141562000836576040517f08c379a00000000000000000000000000000000000000000000000000000000081526004016200082d9062000be2565b60405180910390fd5b8073ffffffffffffffffffffffffffffffffffffffff1660008054906101000a900473ffffffffffffffffffffffffffffffffffffffff1673ffffffffffffffffffffffffffffffffffffffff167f8be0079c531659141344cd1fd0a4f28419497f9722a3daafe3b4186f6b6457e060405160405180910390a3806000806101000a81548173ffffffffffffffffffffffffffffffffffffffff021916908373ffffffffffffffffffffffffffffffffffffffff16021790555050565b600033905090565b61047d8062000ddb83390190565b6000813590506200091a8162000da6565b92915050565b600081359050620009318162000dc0565b92915050565b6000602082840312156200094a57600080fd5b60006200095a8482850162000909565b91505092915050565b6000602082840312156200097657600080fd5b6000620009868482850162000920565b91505092915050565b60006200099d8383620009a9565b60208301905092915050565b620009b48162000d39565b82525050565b620009c58162000d39565b82525050565b6000620009d88262000cc4565b620009e4818562000cdc565b9350620009f18362000cb4565b8060005b8381101562000a2857815162000a0c88826200098f565b975062000a198362000ccf565b925050600181019050620009f5565b5085935050505092915050565b600062000a4460268362000ced565b91507f4f776e61626c653a206e6577206f776e657220697320746865207a65726f206160008301527f64647265737300000000000000000000000000000000000000000000000000006020830152604082019050919050565b600062000aac60198362000ced565b91507f537572766579466163746f72793a2072657374726963746564000000000000006000830152602082019050919050565b600062000aee60208362000ced565b91507f4f776e61626c653a2063616c6c6572206973206e6f7420746865206f776e65726000830152602082019050919050565b600062000b3060208362000ced565b91507f537572766579466163746f72793a204e6f7420656e6f756768206574686572736000830152602082019050919050565b62000b6e8162000d6d565b82525050565b600060208201905062000b8b6000830184620009ba565b92915050565b600060408201905062000ba86000830185620009ba565b62000bb7602083018462000b63565b9392505050565b6000602082019050818103600083015262000bda8184620009cb565b905092915050565b6000602082019050818103600083015262000bfd8162000a35565b9050919050565b6000602082019050818103600083015262000c1f8162000a9d565b9050919050565b6000602082019050818103600083015262000c418162000adf565b9050919050565b6000602082019050818103600083015262000c638162000b21565b9050919050565b600060208201905062000c81600083018462000b63565b92915050565b600060408201905062000c9e600083018562000b63565b62000cad6020830184620009ba565b9392505050565b6000819050602082019050919050565b600081519050919050565b6000602082019050919050565b600082825260208201905092915050565b600082825260208201905092915050565b600062000d0b8262000d6d565b915062000d188362000d6d565b92508282101562000d2e5762000d2d62000d77565b5b828203905092915050565b600062000d468262000d4d565b9050919050565b600073ffffffffffffffffffffffffffffffffffffffff82169050919050565b6000819050919050565b7f4e487b7100000000000000000000000000000000000000000000000000000000600052601160045260246000fd5b62000db18162000d39565b811462000dbd57600080fd5b50565b62000dcb8162000d6d565b811462000dd757600080fd5b5056fe608060405260405161047d38038061047d833981810160405281019061002591906101d8565b600073ffffffffffffffffffffffffffffffffffffffff168173ffffffffffffffffffffffffffffffffffffffff161415610095576040517f08c379a000000000000000000000000000000000000000000000000000000000815260040161008c90610281565b60405180910390fd5b600034116100d8576040517f08c379a00000000000000000000000000000000000000000000000000000000081526004016100cf906102a1565b60405180910390fd5b806000806101000a81548173ffffffffffffffffffffffffffffffffffffffff021916908373ffffffffffffffffffffffffffffffffffffffff16021790555033600160006101000a81548173ffffffffffffffffffffffffffffffffffffffff021916908373ffffffffffffffffffffffffffffffffffffffff1602179055503460008054906101000a900473ffffffffffffffffffffffffffffffffffffffff1673ffffffffffffffffffffffffffffffffffffffff167f51cc12d146311daa1c27922fa9e4d8ab1b86db5194fa326537b50d6659ef84d160405160405180910390a35061031b565b6000815190506101d281610304565b92915050565b6000602082840312156101ea57600080fd5b60006101f8848285016101c3565b91505092915050565b600061020e601c836102c1565b91507f5375727665793a496e76616c6964206f776e65722061646472657373000000006000830152602082019050919050565b600061024e601f836102c1565b91507f5375727665793a20616d6f756e7420677265746572207468616e207a65726f006000830152602082019050919050565b6000602082019050818103600083015261029a81610201565b9050919050565b600060208201905081810360008301526102ba81610241565b9050919050565b600082825260208201905092915050565b60006102dd826102e4565b9050919050565b600073ffffffffffffffffffffffffffffffffffffffff82169050919050565b61030d816102d2565b811461031857600080fd5b50565b6101538061032a6000396000f3fe608060405234801561001057600080fd5b50600436106100365760003560e01c80638da5cb5b1461003b578063c45a015514610059575b600080fd5b610043610077565b60405161005091906100d0565b60405180910390f35b61006161009b565b60405161006e91906100d0565b60405180910390f35b60008054906101000a900473ffffffffffffffffffffffffffffffffffffffff1681565b600160009054906101000a900473ffffffffffffffffffffffffffffffffffffffff1681565b6100ca816100eb565b82525050565b60006020820190506100e560008301846100c1565b92915050565b60006100f6826100fd565b9050919050565b600073ffffffffffffffffffffffffffffffffffffffff8216905091905056fea26469706673582212203e00f8d6425e1f0f96e167b5013116844059ecfdffe7e921c60f6845c1b7726a64736f6c63430008000033a2646970667358221220d6c5796b76d6d55dde77ab995a5e37bf06669e44469872a0d28cfb4f6c66abb064736f6c63430008000033",
          "opcodes": "PUSH1 0x80 PUSH1 0x40 MSTORE CALLVALUE DUP1 ISZERO PUSH2 0x10 JUMPI PUSH1 0x0 DUP1 REVERT JUMPDEST POP PUSH1 0x40 MLOAD PUSH2 0x141F CODESIZE SUB DUP1 PUSH2 0x141F DUP4 CODECOPY DUP2 DUP2 ADD PUSH1 0x40 MSTORE DUP2 ADD SWAP1 PUSH2 0x32 SWAP2 SWAP1 PUSH2 0x139 JUMP JUMPDEST PUSH1 0x0 PUSH2 0x42 PUSH2 0x11C PUSH1 0x20 SHL PUSH1 0x20 SHR JUMP JUMPDEST SWAP1 POP DUP1 PUSH1 0x0 DUP1 PUSH2 0x100 EXP DUP2 SLOAD DUP2 PUSH20 0xFFFFFFFFFFFFFFFFFFFFFFFFFFFFFFFFFFFFFFFF MUL NOT AND SWAP1 DUP4 PUSH20 0xFFFFFFFFFFFFFFFFFFFFFFFFFFFFFFFFFFFFFFFF AND MUL OR SWAP1 SSTORE POP DUP1 PUSH20 0xFFFFFFFFFFFFFFFFFFFFFFFFFFFFFFFFFFFFFFFF AND PUSH1 0x0 PUSH20 0xFFFFFFFFFFFFFFFFFFFFFFFFFFFFFFFFFFFFFFFF AND PUSH32 0x8BE0079C531659141344CD1FD0A4F28419497F9722A3DAAFE3B4186F6B6457E0 PUSH1 0x40 MLOAD PUSH1 0x40 MLOAD DUP1 SWAP2 SUB SWAP1 LOG3 POP DUP1 PUSH1 0x1 DUP2 SWAP1 SSTORE POP PUSH1 0x1 SLOAD PUSH32 0xF184369F39717F266F1BF357EB0874181686F3E1FC282AE9605BA4BFD30635BB PUSH1 0x40 MLOAD PUSH1 0x40 MLOAD DUP1 SWAP2 SUB SWAP1 LOG2 POP PUSH2 0x183 JUMP JUMPDEST PUSH1 0x0 CALLER SWAP1 POP SWAP1 JUMP JUMPDEST PUSH1 0x0 DUP2 MLOAD SWAP1 POP PUSH2 0x133 DUP2 PUSH2 0x16C JUMP JUMPDEST SWAP3 SWAP2 POP POP JUMP JUMPDEST PUSH1 0x0 PUSH1 0x20 DUP3 DUP5 SUB SLT ISZERO PUSH2 0x14B JUMPI PUSH1 0x0 DUP1 REVERT JUMPDEST PUSH1 0x0 PUSH2 0x159 DUP5 DUP3 DUP6 ADD PUSH2 0x124 JUMP JUMPDEST SWAP2 POP POP SWAP3 SWAP2 POP POP JUMP JUMPDEST PUSH1 0x0 DUP2 SWAP1 POP SWAP2 SWAP1 POP JUMP JUMPDEST PUSH2 0x175 DUP2 PUSH2 0x162 JUMP JUMPDEST DUP2 EQ PUSH2 0x180 JUMPI PUSH1 0x0 DUP1 REVERT JUMPDEST POP JUMP JUMPDEST PUSH2 0x128D DUP1 PUSH2 0x192 PUSH1 0x0 CODECOPY PUSH1 0x0 RETURN INVALID PUSH1 0x80 PUSH1 0x40 MSTORE PUSH1 0x4 CALLDATASIZE LT PUSH3 0x86 JUMPI PUSH1 0x0 CALLDATALOAD PUSH1 0xE0 SHR DUP1 PUSH4 0x8DA5CB5B GT PUSH3 0x55 JUMPI DUP1 PUSH4 0x8DA5CB5B EQ PUSH3 0x15E JUMPI DUP1 PUSH4 0xA934BAFE EQ PUSH3 0x18E JUMPI DUP1 PUSH4 0xC65DFC9F EQ PUSH3 0x1BE JUMPI DUP1 PUSH4 0xF2FDE38B EQ PUSH3 0x1E1 JUMPI PUSH3 0x86 JUMP JUMPDEST DUP1 PUSH4 0x34819BDC EQ PUSH3 0x8B JUMPI DUP1 PUSH4 0x715018A6 EQ PUSH3 0xD0 JUMPI DUP1 PUSH4 0x7A1BC375 EQ PUSH3 0xEA JUMPI DUP1 PUSH4 0x86E68B90 EQ PUSH3 0x11A JUMPI JUMPDEST PUSH1 0x0 DUP1 REVERT JUMPDEST CALLVALUE DUP1 ISZERO PUSH3 0x98 JUMPI PUSH1 0x0 DUP1 REVERT JUMPDEST POP PUSH3 0xB7 PUSH1 0x4 DUP1 CALLDATASIZE SUB DUP2 ADD SWAP1 PUSH3 0xB1 SWAP2 SWAP1 PUSH3 0x937 JUMP JUMPDEST PUSH3 0x20F JUMP JUMPDEST PUSH1 0x40 MLOAD PUSH3 0xC7 SWAP3 SWAP2 SWAP1 PUSH3 0xB91 JUMP JUMPDEST PUSH1 0x40 MLOAD DUP1 SWAP2 SUB SWAP1 RETURN JUMPDEST CALLVALUE DUP1 ISZERO PUSH3 0xDD JUMPI PUSH1 0x0 DUP1 REVERT JUMPDEST POP PUSH3 0xE8 PUSH3 0x253 JUMP JUMPDEST STOP JUMPDEST CALLVALUE DUP1 ISZERO PUSH3 0xF7 JUMPI PUSH1 0x0 DUP1 REVERT JUMPDEST POP PUSH3 0x102 PUSH3 0x394 JUMP JUMPDEST PUSH1 0x40 MLOAD PUSH3 0x111 SWAP2 SWAP1 PUSH3 0xBBE JUMP JUMPDEST PUSH1 0x40 MLOAD DUP1 SWAP2 SUB SWAP1 RETURN JUMPDEST CALLVALUE DUP1 ISZERO PUSH3 0x127 JUMPI PUSH1 0x0 DUP1 REVERT JUMPDEST POP PUSH3 0x146 PUSH1 0x4 DUP1 CALLDATASIZE SUB DUP2 ADD SWAP1 PUSH3 0x140 SWAP2 SWAP1 PUSH3 0x963 JUMP JUMPDEST PUSH3 0x424 JUMP JUMPDEST PUSH1 0x40 MLOAD PUSH3 0x155 SWAP2 SWAP1 PUSH3 0xB74 JUMP JUMPDEST PUSH1 0x40 MLOAD DUP1 SWAP2 SUB SWAP1 RETURN JUMPDEST CALLVALUE DUP1 ISZERO PUSH3 0x16B JUMPI PUSH1 0x0 DUP1 REVERT JUMPDEST POP PUSH3 0x176 PUSH3 0x464 JUMP JUMPDEST PUSH1 0x40 MLOAD PUSH3 0x185 SWAP2 SWAP1 PUSH3 0xB74 JUMP JUMPDEST PUSH1 0x40 MLOAD DUP1 SWAP2 SUB SWAP1 RETURN JUMPDEST CALLVALUE DUP1 ISZERO PUSH3 0x19B JUMPI PUSH1 0x0 DUP1 REVERT JUMPDEST POP PUSH3 0x1A6 PUSH3 0x48D JUMP JUMPDEST PUSH1 0x40 MLOAD PUSH3 0x1B5 SWAP2 SWAP1 PUSH3 0xC6A JUMP JUMPDEST PUSH1 0x40 MLOAD DUP1 SWAP2 SUB SWAP1 RETURN JUMPDEST PUSH3 0x1C8 PUSH3 0x493 JUMP JUMPDEST PUSH1 0x40 MLOAD PUSH3 0x1D8 SWAP3 SWAP2 SWAP1 PUSH3 0xC87 JUMP JUMPDEST PUSH1 0x40 MLOAD DUP1 SWAP2 SUB SWAP1 RETURN JUMPDEST CALLVALUE DUP1 ISZERO PUSH3 0x1EE JUMPI PUSH1 0x0 DUP1 REVERT JUMPDEST POP PUSH3 0x20D PUSH1 0x4 DUP1 CALLDATASIZE SUB DUP2 ADD SWAP1 PUSH3 0x207 SWAP2 SWAP1 PUSH3 0x937 JUMP JUMPDEST PUSH3 0x740 JUMP JUMPDEST STOP JUMPDEST PUSH1 0x3 PUSH1 0x20 MSTORE DUP1 PUSH1 0x0 MSTORE PUSH1 0x40 PUSH1 0x0 KECCAK256 PUSH1 0x0 SWAP2 POP SWAP1 POP DUP1 PUSH1 0x0 ADD PUSH1 0x0 SWAP1 SLOAD SWAP1 PUSH2 0x100 EXP SWAP1 DIV PUSH20 0xFFFFFFFFFFFFFFFFFFFFFFFFFFFFFFFFFFFFFFFF AND SWAP1 DUP1 PUSH1 0x1 ADD SLOAD SWAP1 POP DUP3 JUMP JUMPDEST PUSH3 0x25D PUSH3 0x8F3 JUMP JUMPDEST PUSH20 0xFFFFFFFFFFFFFFFFFFFFFFFFFFFFFFFFFFFFFFFF AND PUSH3 0x27D PUSH3 0x464 JUMP JUMPDEST PUSH20 0xFFFFFFFFFFFFFFFFFFFFFFFFFFFFFFFFFFFFFFFF AND EQ PUSH3 0x2D6 JUMPI PUSH1 0x40 MLOAD PUSH32 0x8C379A000000000000000000000000000000000000000000000000000000000 DUP2 MSTORE PUSH1 0x4 ADD PUSH3 0x2CD SWAP1 PUSH3 0xC26 JUMP JUMPDEST PUSH1 0x40 MLOAD DUP1 SWAP2 SUB SWAP1 REVERT JUMPDEST PUSH1 0x0 PUSH20 0xFFFFFFFFFFFFFFFFFFFFFFFFFFFFFFFFFFFFFFFF AND PUSH1 0x0 DUP1 SLOAD SWAP1 PUSH2 0x100 EXP SWAP1 DIV PUSH20 0xFFFFFFFFFFFFFFFFFFFFFFFFFFFFFFFFFFFFFFFF AND PUSH20 0xFFFFFFFFFFFFFFFFFFFFFFFFFFFFFFFFFFFFFFFF AND PUSH32 0x8BE0079C531659141344CD1FD0A4F28419497F9722A3DAAFE3B4186F6B6457E0 PUSH1 0x40 MLOAD PUSH1 0x40 MLOAD DUP1 SWAP2 SUB SWAP1 LOG3 PUSH1 0x0 DUP1 PUSH1 0x0 PUSH2 0x100 EXP DUP2 SLOAD DUP2 PUSH20 0xFFFFFFFFFFFFFFFFFFFFFFFFFFFFFFFFFFFFFFFF MUL NOT AND SWAP1 DUP4 PUSH20 0xFFFFFFFFFFFFFFFFFFFFFFFFFFFFFFFFFFFFFFFF AND MUL OR SWAP1 SSTORE POP JUMP JUMPDEST PUSH1 0x60 PUSH1 0x2 DUP1 SLOAD DUP1 PUSH1 0x20 MUL PUSH1 0x20 ADD PUSH1 0x40 MLOAD SWAP1 DUP2 ADD PUSH1 0x40 MSTORE DUP1 SWAP3 SWAP2 SWAP1 DUP2 DUP2 MSTORE PUSH1 0x20 ADD DUP3 DUP1 SLOAD DUP1 ISZERO PUSH3 0x41A JUMPI PUSH1 0x20 MUL DUP3 ADD SWAP2 SWAP1 PUSH1 0x0 MSTORE PUSH1 0x20 PUSH1 0x0 KECCAK256 SWAP1 JUMPDEST DUP2 PUSH1 0x0 SWAP1 SLOAD SWAP1 PUSH2 0x100 EXP SWAP1 DIV PUSH20 0xFFFFFFFFFFFFFFFFFFFFFFFFFFFFFFFFFFFFFFFF AND PUSH20 0xFFFFFFFFFFFFFFFFFFFFFFFFFFFFFFFFFFFFFFFF AND DUP2 MSTORE PUSH1 0x20 ADD SWAP1 PUSH1 0x1 ADD SWAP1 DUP1 DUP4 GT PUSH3 0x3CF JUMPI JUMPDEST POP POP POP POP POP SWAP1 POP SWAP1 JUMP JUMPDEST PUSH1 0x2 DUP2 DUP2 SLOAD DUP2 LT PUSH3 0x435 JUMPI PUSH1 0x0 DUP1 REVERT JUMPDEST SWAP1 PUSH1 0x0 MSTORE PUSH1 0x20 PUSH1 0x0 KECCAK256 ADD PUSH1 0x0 SWAP2 POP SLOAD SWAP1 PUSH2 0x100 EXP SWAP1 DIV PUSH20 0xFFFFFFFFFFFFFFFFFFFFFFFFFFFFFFFFFFFFFFFF AND DUP2 JUMP JUMPDEST PUSH1 0x0 DUP1 PUSH1 0x0 SWAP1 SLOAD SWAP1 PUSH2 0x100 EXP SWAP1 DIV PUSH20 0xFFFFFFFFFFFFFFFFFFFFFFFFFFFFFFFFFFFFFFFF AND SWAP1 POP SWAP1 JUMP JUMPDEST PUSH1 0x1 SLOAD DUP2 JUMP JUMPDEST PUSH1 0x0 DUP1 PUSH3 0x4A0 PUSH3 0x464 JUMP JUMPDEST PUSH20 0xFFFFFFFFFFFFFFFFFFFFFFFFFFFFFFFFFFFFFFFF AND CALLER PUSH20 0xFFFFFFFFFFFFFFFFFFFFFFFFFFFFFFFFFFFFFFFF AND EQ ISZERO PUSH3 0x511 JUMPI PUSH1 0x40 MLOAD PUSH32 0x8C379A000000000000000000000000000000000000000000000000000000000 DUP2 MSTORE PUSH1 0x4 ADD PUSH3 0x508 SWAP1 PUSH3 0xC04 JUMP JUMPDEST PUSH1 0x40 MLOAD DUP1 SWAP2 SUB SWAP1 REVERT JUMPDEST PUSH1 0x1 SLOAD CALLVALUE GT PUSH3 0x558 JUMPI PUSH1 0x40 MLOAD PUSH32 0x8C379A000000000000000000000000000000000000000000000000000000000 DUP2 MSTORE PUSH1 0x4 ADD PUSH3 0x54F SWAP1 PUSH3 0xC48 JUMP JUMPDEST PUSH1 0x40 MLOAD DUP1 SWAP2 SUB SWAP1 REVERT JUMPDEST PUSH1 0x0 PUSH1 0x1 SLOAD CALLVALUE PUSH3 0x56A SWAP2 SWAP1 PUSH3 0xCFE JUMP JUMPDEST CALLER PUSH1 0x40 MLOAD PUSH3 0x579 SWAP1 PUSH3 0x8FB JUMP JUMPDEST PUSH3 0x585 SWAP2 SWAP1 PUSH3 0xB74 JUMP JUMPDEST PUSH1 0x40 MLOAD DUP1 SWAP2 SUB SWAP1 DUP3 CREATE SWAP1 POP DUP1 ISZERO DUP1 ISZERO PUSH3 0x5A3 JUMPI RETURNDATASIZE PUSH1 0x0 DUP1 RETURNDATACOPY RETURNDATASIZE PUSH1 0x0 REVERT JUMPDEST POP SWAP1 POP DUP1 SWAP2 POP PUSH1 0x2 DUP3 SWAP1 DUP1 PUSH1 0x1 DUP2 SLOAD ADD DUP1 DUP3 SSTORE DUP1 SWAP2 POP POP PUSH1 0x1 SWAP1 SUB SWAP1 PUSH1 0x0 MSTORE PUSH1 0x20 PUSH1 0x0 KECCAK256 ADD PUSH1 0x0 SWAP1 SWAP2 SWAP1 SWAP2 SWAP1 SWAP2 PUSH2 0x100 EXP DUP2 SLOAD DUP2 PUSH20 0xFFFFFFFFFFFFFFFFFFFFFFFFFFFFFFFFFFFFFFFF MUL NOT AND SWAP1 DUP4 PUSH20 0xFFFFFFFFFFFFFFFFFFFFFFFFFFFFFFFFFFFFFFFF AND MUL OR SWAP1 SSTORE POP PUSH1 0x1 PUSH1 0x2 DUP1 SLOAD SWAP1 POP PUSH3 0x620 SWAP2 SWAP1 PUSH3 0xCFE JUMP JUMPDEST SWAP3 POP PUSH1 0x40 MLOAD DUP1 PUSH1 0x40 ADD PUSH1 0x40 MSTORE DUP1 CALLER PUSH20 0xFFFFFFFFFFFFFFFFFFFFFFFFFFFFFFFFFFFFFFFF AND DUP2 MSTORE PUSH1 0x20 ADD DUP5 DUP2 MSTORE POP PUSH1 0x3 PUSH1 0x0 DUP5 PUSH20 0xFFFFFFFFFFFFFFFFFFFFFFFFFFFFFFFFFFFFFFFF AND PUSH20 0xFFFFFFFFFFFFFFFFFFFFFFFFFFFFFFFFFFFFFFFF AND DUP2 MSTORE PUSH1 0x20 ADD SWAP1 DUP2 MSTORE PUSH1 0x20 ADD PUSH1 0x0 KECCAK256 PUSH1 0x0 DUP3 ADD MLOAD DUP2 PUSH1 0x0 ADD PUSH1 0x0 PUSH2 0x100 EXP DUP2 SLOAD DUP2 PUSH20 0xFFFFFFFFFFFFFFFFFFFFFFFFFFFFFFFFFFFFFFFF MUL NOT AND SWAP1 DUP4 PUSH20 0xFFFFFFFFFFFFFFFFFFFFFFFFFFFFFFFFFFFFFFFF AND MUL OR SWAP1 SSTORE POP PUSH1 0x20 DUP3 ADD MLOAD DUP2 PUSH1 0x1 ADD SSTORE SWAP1 POP POP DUP2 PUSH20 0xFFFFFFFFFFFFFFFFFFFFFFFFFFFFFFFFFFFFFFFF AND DUP4 CALLER PUSH20 0xFFFFFFFFFFFFFFFFFFFFFFFFFFFFFFFFFFFFFFFF AND PUSH32 0x4FC6E968DD0ADB70735B85CD0AE0A00F84780B7DAC7193D01CAA4418B3432B92 PUSH1 0x40 MLOAD PUSH1 0x40 MLOAD DUP1 SWAP2 SUB SWAP1 LOG4 POP SWAP1 SWAP2 JUMP JUMPDEST PUSH3 0x74A PUSH3 0x8F3 JUMP JUMPDEST PUSH20 0xFFFFFFFFFFFFFFFFFFFFFFFFFFFFFFFFFFFFFFFF AND PUSH3 0x76A PUSH3 0x464 JUMP JUMPDEST PUSH20 0xFFFFFFFFFFFFFFFFFFFFFFFFFFFFFFFFFFFFFFFF AND EQ PUSH3 0x7C3 JUMPI PUSH1 0x40 MLOAD PUSH32 0x8C379A000000000000000000000000000000000000000000000000000000000 DUP2 MSTORE PUSH1 0x4 ADD PUSH3 0x7BA SWAP1 PUSH3 0xC26 JUMP JUMPDEST PUSH1 0x40 MLOAD DUP1 SWAP2 SUB SWAP1 REVERT JUMPDEST PUSH1 0x0 PUSH20 0xFFFFFFFFFFFFFFFFFFFFFFFFFFFFFFFFFFFFFFFF AND DUP2 PUSH20 0xFFFFFFFFFFFFFFFFFFFFFFFFFFFFFFFFFFFFFFFF AND EQ ISZERO PUSH3 0x836 JUMPI PUSH1 0x40 MLOAD PUSH32 0x8C379A000000000000000000000000000000000000000000000000000000000 DUP2 MSTORE PUSH1 0x4 ADD PUSH3 0x82D SWAP1 PUSH3 0xBE2 JUMP JUMPDEST PUSH1 0x40 MLOAD DUP1 SWAP2 SUB SWAP1 REVERT JUMPDEST DUP1 PUSH20 0xFFFFFFFFFFFFFFFFFFFFFFFFFFFFFFFFFFFFFFFF AND PUSH1 0x0 DUP1 SLOAD SWAP1 PUSH2 0x100 EXP SWAP1 DIV PUSH20 0xFFFFFFFFFFFFFFFFFFFFFFFFFFFFFFFFFFFFFFFF AND PUSH20 0xFFFFFFFFFFFFFFFFFFFFFFFFFFFFFFFFFFFFFFFF AND PUSH32 0x8BE0079C531659141344CD1FD0A4F28419497F9722A3DAAFE3B4186F6B6457E0 PUSH1 0x40 MLOAD PUSH1 0x40 MLOAD DUP1 SWAP2 SUB SWAP1 LOG3 DUP1 PUSH1 0x0 DUP1 PUSH2 0x100 EXP DUP2 SLOAD DUP2 PUSH20 0xFFFFFFFFFFFFFFFFFFFFFFFFFFFFFFFFFFFFFFFF MUL NOT AND SWAP1 DUP4 PUSH20 0xFFFFFFFFFFFFFFFFFFFFFFFFFFFFFFFFFFFFFFFF AND MUL OR SWAP1 SSTORE POP POP JUMP JUMPDEST PUSH1 0x0 CALLER SWAP1 POP SWAP1 JUMP JUMPDEST PUSH2 0x47D DUP1 PUSH3 0xDDB DUP4 CODECOPY ADD SWAP1 JUMP JUMPDEST PUSH1 0x0 DUP2 CALLDATALOAD SWAP1 POP PUSH3 0x91A DUP2 PUSH3 0xDA6 JUMP JUMPDEST SWAP3 SWAP2 POP POP JUMP JUMPDEST PUSH1 0x0 DUP2 CALLDATALOAD SWAP1 POP PUSH3 0x931 DUP2 PUSH3 0xDC0 JUMP JUMPDEST SWAP3 SWAP2 POP POP JUMP JUMPDEST PUSH1 0x0 PUSH1 0x20 DUP3 DUP5 SUB SLT ISZERO PUSH3 0x94A JUMPI PUSH1 0x0 DUP1 REVERT JUMPDEST PUSH1 0x0 PUSH3 0x95A DUP5 DUP3 DUP6 ADD PUSH3 0x909 JUMP JUMPDEST SWAP2 POP POP SWAP3 SWAP2 POP POP JUMP JUMPDEST PUSH1 0x0 PUSH1 0x20 DUP3 DUP5 SUB SLT ISZERO PUSH3 0x976 JUMPI PUSH1 0x0 DUP1 REVERT JUMPDEST PUSH1 0x0 PUSH3 0x986 DUP5 DUP3 DUP6 ADD PUSH3 0x920 JUMP JUMPDEST SWAP2 POP POP SWAP3 SWAP2 POP POP JUMP JUMPDEST PUSH1 0x0 PUSH3 0x99D DUP4 DUP4 PUSH3 0x9A9 JUMP JUMPDEST PUSH1 0x20 DUP4 ADD SWAP1 POP SWAP3 SWAP2 POP POP JUMP JUMPDEST PUSH3 0x9B4 DUP2 PUSH3 0xD39 JUMP JUMPDEST DUP3 MSTORE POP POP JUMP JUMPDEST PUSH3 0x9C5 DUP2 PUSH3 0xD39 JUMP JUMPDEST DUP3 MSTORE POP POP JUMP JUMPDEST PUSH1 0x0 PUSH3 0x9D8 DUP3 PUSH3 0xCC4 JUMP JUMPDEST PUSH3 0x9E4 DUP2 DUP6 PUSH3 0xCDC JUMP JUMPDEST SWAP4 POP PUSH3 0x9F1 DUP4 PUSH3 0xCB4 JUMP JUMPDEST DUP1 PUSH1 0x0 JUMPDEST DUP4 DUP2 LT ISZERO PUSH3 0xA28 JUMPI DUP2 MLOAD PUSH3 0xA0C DUP9 DUP3 PUSH3 0x98F JUMP JUMPDEST SWAP8 POP PUSH3 0xA19 DUP4 PUSH3 0xCCF JUMP JUMPDEST SWAP3 POP POP PUSH1 0x1 DUP2 ADD SWAP1 POP PUSH3 0x9F5 JUMP JUMPDEST POP DUP6 SWAP4 POP POP POP POP SWAP3 SWAP2 POP POP JUMP JUMPDEST PUSH1 0x0 PUSH3 0xA44 PUSH1 0x26 DUP4 PUSH3 0xCED JUMP JUMPDEST SWAP2 POP PUSH32 0x4F776E61626C653A206E6577206F776E657220697320746865207A65726F2061 PUSH1 0x0 DUP4 ADD MSTORE PUSH32 0x6464726573730000000000000000000000000000000000000000000000000000 PUSH1 0x20 DUP4 ADD MSTORE PUSH1 0x40 DUP3 ADD SWAP1 POP SWAP2 SWAP1 POP JUMP JUMPDEST PUSH1 0x0 PUSH3 0xAAC PUSH1 0x19 DUP4 PUSH3 0xCED JUMP JUMPDEST SWAP2 POP PUSH32 0x537572766579466163746F72793A207265737472696374656400000000000000 PUSH1 0x0 DUP4 ADD MSTORE PUSH1 0x20 DUP3 ADD SWAP1 POP SWAP2 SWAP1 POP JUMP JUMPDEST PUSH1 0x0 PUSH3 0xAEE PUSH1 0x20 DUP4 PUSH3 0xCED JUMP JUMPDEST SWAP2 POP PUSH32 0x4F776E61626C653A2063616C6C6572206973206E6F7420746865206F776E6572 PUSH1 0x0 DUP4 ADD MSTORE PUSH1 0x20 DUP3 ADD SWAP1 POP SWAP2 SWAP1 POP JUMP JUMPDEST PUSH1 0x0 PUSH3 0xB30 PUSH1 0x20 DUP4 PUSH3 0xCED JUMP JUMPDEST SWAP2 POP PUSH32 0x537572766579466163746F72793A204E6F7420656E6F75676820657468657273 PUSH1 0x0 DUP4 ADD MSTORE PUSH1 0x20 DUP3 ADD SWAP1 POP SWAP2 SWAP1 POP JUMP JUMPDEST PUSH3 0xB6E DUP2 PUSH3 0xD6D JUMP JUMPDEST DUP3 MSTORE POP POP JUMP JUMPDEST PUSH1 0x0 PUSH1 0x20 DUP3 ADD SWAP1 POP PUSH3 0xB8B PUSH1 0x0 DUP4 ADD DUP5 PUSH3 0x9BA JUMP JUMPDEST SWAP3 SWAP2 POP POP JUMP JUMPDEST PUSH1 0x0 PUSH1 0x40 DUP3 ADD SWAP1 POP PUSH3 0xBA8 PUSH1 0x0 DUP4 ADD DUP6 PUSH3 0x9BA JUMP JUMPDEST PUSH3 0xBB7 PUSH1 0x20 DUP4 ADD DUP5 PUSH3 0xB63 JUMP JUMPDEST SWAP4 SWAP3 POP POP POP JUMP JUMPDEST PUSH1 0x0 PUSH1 0x20 DUP3 ADD SWAP1 POP DUP2 DUP2 SUB PUSH1 0x0 DUP4 ADD MSTORE PUSH3 0xBDA DUP2 DUP5 PUSH3 0x9CB JUMP JUMPDEST SWAP1 POP SWAP3 SWAP2 POP POP JUMP JUMPDEST PUSH1 0x0 PUSH1 0x20 DUP3 ADD SWAP1 POP DUP2 DUP2 SUB PUSH1 0x0 DUP4 ADD MSTORE PUSH3 0xBFD DUP2 PUSH3 0xA35 JUMP JUMPDEST SWAP1 POP SWAP2 SWAP1 POP JUMP JUMPDEST PUSH1 0x0 PUSH1 0x20 DUP3 ADD SWAP1 POP DUP2 DUP2 SUB PUSH1 0x0 DUP4 ADD MSTORE PUSH3 0xC1F DUP2 PUSH3 0xA9D JUMP JUMPDEST SWAP1 POP SWAP2 SWAP1 POP JUMP JUMPDEST PUSH1 0x0 PUSH1 0x20 DUP3 ADD SWAP1 POP DUP2 DUP2 SUB PUSH1 0x0 DUP4 ADD MSTORE PUSH3 0xC41 DUP2 PUSH3 0xADF JUMP JUMPDEST SWAP1 POP SWAP2 SWAP1 POP JUMP JUMPDEST PUSH1 0x0 PUSH1 0x20 DUP3 ADD SWAP1 POP DUP2 DUP2 SUB PUSH1 0x0 DUP4 ADD MSTORE PUSH3 0xC63 DUP2 PUSH3 0xB21 JUMP JUMPDEST SWAP1 POP SWAP2 SWAP1 POP JUMP JUMPDEST PUSH1 0x0 PUSH1 0x20 DUP3 ADD SWAP1 POP PUSH3 0xC81 PUSH1 0x0 DUP4 ADD DUP5 PUSH3 0xB63 JUMP JUMPDEST SWAP3 SWAP2 POP POP JUMP JUMPDEST PUSH1 0x0 PUSH1 0x40 DUP3 ADD SWAP1 POP PUSH3 0xC9E PUSH1 0x0 DUP4 ADD DUP6 PUSH3 0xB63 JUMP JUMPDEST PUSH3 0xCAD PUSH1 0x20 DUP4 ADD DUP5 PUSH3 0x9BA JUMP JUMPDEST SWAP4 SWAP3 POP POP POP JUMP JUMPDEST PUSH1 0x0 DUP2 SWAP1 POP PUSH1 0x20 DUP3 ADD SWAP1 POP SWAP2 SWAP1 POP JUMP JUMPDEST PUSH1 0x0 DUP2 MLOAD SWAP1 POP SWAP2 SWAP1 POP JUMP JUMPDEST PUSH1 0x0 PUSH1 0x20 DUP3 ADD SWAP1 POP SWAP2 SWAP1 POP JUMP JUMPDEST PUSH1 0x0 DUP3 DUP3 MSTORE PUSH1 0x20 DUP3 ADD SWAP1 POP SWAP3 SWAP2 POP POP JUMP JUMPDEST PUSH1 0x0 DUP3 DUP3 MSTORE PUSH1 0x20 DUP3 ADD SWAP1 POP SWAP3 SWAP2 POP POP JUMP JUMPDEST PUSH1 0x0 PUSH3 0xD0B DUP3 PUSH3 0xD6D JUMP JUMPDEST SWAP2 POP PUSH3 0xD18 DUP4 PUSH3 0xD6D JUMP JUMPDEST SWAP3 POP DUP3 DUP3 LT ISZERO PUSH3 0xD2E JUMPI PUSH3 0xD2D PUSH3 0xD77 JUMP JUMPDEST JUMPDEST DUP3 DUP3 SUB SWAP1 POP SWAP3 SWAP2 POP POP JUMP JUMPDEST PUSH1 0x0 PUSH3 0xD46 DUP3 PUSH3 0xD4D JUMP JUMPDEST SWAP1 POP SWAP2 SWAP1 POP JUMP JUMPDEST PUSH1 0x0 PUSH20 0xFFFFFFFFFFFFFFFFFFFFFFFFFFFFFFFFFFFFFFFF DUP3 AND SWAP1 POP SWAP2 SWAP1 POP JUMP JUMPDEST PUSH1 0x0 DUP2 SWAP1 POP SWAP2 SWAP1 POP JUMP JUMPDEST PUSH32 0x4E487B7100000000000000000000000000000000000000000000000000000000 PUSH1 0x0 MSTORE PUSH1 0x11 PUSH1 0x4 MSTORE PUSH1 0x24 PUSH1 0x0 REVERT JUMPDEST PUSH3 0xDB1 DUP2 PUSH3 0xD39 JUMP JUMPDEST DUP2 EQ PUSH3 0xDBD JUMPI PUSH1 0x0 DUP1 REVERT JUMPDEST POP JUMP JUMPDEST PUSH3 0xDCB DUP2 PUSH3 0xD6D JUMP JUMPDEST DUP2 EQ PUSH3 0xDD7 JUMPI PUSH1 0x0 DUP1 REVERT JUMPDEST POP JUMP INVALID PUSH1 0x80 PUSH1 0x40 MSTORE PUSH1 0x40 MLOAD PUSH2 0x47D CODESIZE SUB DUP1 PUSH2 0x47D DUP4 CODECOPY DUP2 DUP2 ADD PUSH1 0x40 MSTORE DUP2 ADD SWAP1 PUSH2 0x25 SWAP2 SWAP1 PUSH2 0x1D8 JUMP JUMPDEST PUSH1 0x0 PUSH20 0xFFFFFFFFFFFFFFFFFFFFFFFFFFFFFFFFFFFFFFFF AND DUP2 PUSH20 0xFFFFFFFFFFFFFFFFFFFFFFFFFFFFFFFFFFFFFFFF AND EQ ISZERO PUSH2 0x95 JUMPI PUSH1 0x40 MLOAD PUSH32 0x8C379A000000000000000000000000000000000000000000000000000000000 DUP2 MSTORE PUSH1 0x4 ADD PUSH2 0x8C SWAP1 PUSH2 0x281 JUMP JUMPDEST PUSH1 0x40 MLOAD DUP1 SWAP2 SUB SWAP1 REVERT JUMPDEST PUSH1 0x0 CALLVALUE GT PUSH2 0xD8 JUMPI PUSH1 0x40 MLOAD PUSH32 0x8C379A000000000000000000000000000000000000000000000000000000000 DUP2 MSTORE PUSH1 0x4 ADD PUSH2 0xCF SWAP1 PUSH2 0x2A1 JUMP JUMPDEST PUSH1 0x40 MLOAD DUP1 SWAP2 SUB SWAP1 REVERT JUMPDEST DUP1 PUSH1 0x0 DUP1 PUSH2 0x100 EXP DUP2 SLOAD DUP2 PUSH20 0xFFFFFFFFFFFFFFFFFFFFFFFFFFFFFFFFFFFFFFFF MUL NOT AND SWAP1 DUP4 PUSH20 0xFFFFFFFFFFFFFFFFFFFFFFFFFFFFFFFFFFFFFFFF AND MUL OR SWAP1 SSTORE POP CALLER PUSH1 0x1 PUSH1 0x0 PUSH2 0x100 EXP DUP2 SLOAD DUP2 PUSH20 0xFFFFFFFFFFFFFFFFFFFFFFFFFFFFFFFFFFFFFFFF MUL NOT AND SWAP1 DUP4 PUSH20 0xFFFFFFFFFFFFFFFFFFFFFFFFFFFFFFFFFFFFFFFF AND MUL OR SWAP1 SSTORE POP CALLVALUE PUSH1 0x0 DUP1 SLOAD SWAP1 PUSH2 0x100 EXP SWAP1 DIV PUSH20 0xFFFFFFFFFFFFFFFFFFFFFFFFFFFFFFFFFFFFFFFF AND PUSH20 0xFFFFFFFFFFFFFFFFFFFFFFFFFFFFFFFFFFFFFFFF AND PUSH32 0x51CC12D146311DAA1C27922FA9E4D8AB1B86DB5194FA326537B50D6659EF84D1 PUSH1 0x40 MLOAD PUSH1 0x40 MLOAD DUP1 SWAP2 SUB SWAP1 LOG3 POP PUSH2 0x31B JUMP JUMPDEST PUSH1 0x0 DUP2 MLOAD SWAP1 POP PUSH2 0x1D2 DUP2 PUSH2 0x304 JUMP JUMPDEST SWAP3 SWAP2 POP POP JUMP JUMPDEST PUSH1 0x0 PUSH1 0x20 DUP3 DUP5 SUB SLT ISZERO PUSH2 0x1EA JUMPI PUSH1 0x0 DUP1 REVERT JUMPDEST PUSH1 0x0 PUSH2 0x1F8 DUP5 DUP3 DUP6 ADD PUSH2 0x1C3 JUMP JUMPDEST SWAP2 POP POP SWAP3 SWAP2 POP POP JUMP JUMPDEST PUSH1 0x0 PUSH2 0x20E PUSH1 0x1C DUP4 PUSH2 0x2C1 JUMP JUMPDEST SWAP2 POP PUSH32 0x5375727665793A496E76616C6964206F776E6572206164647265737300000000 PUSH1 0x0 DUP4 ADD MSTORE PUSH1 0x20 DUP3 ADD SWAP1 POP SWAP2 SWAP1 POP JUMP JUMPDEST PUSH1 0x0 PUSH2 0x24E PUSH1 0x1F DUP4 PUSH2 0x2C1 JUMP JUMPDEST SWAP2 POP PUSH32 0x5375727665793A20616D6F756E7420677265746572207468616E207A65726F00 PUSH1 0x0 DUP4 ADD MSTORE PUSH1 0x20 DUP3 ADD SWAP1 POP SWAP2 SWAP1 POP JUMP JUMPDEST PUSH1 0x0 PUSH1 0x20 DUP3 ADD SWAP1 POP DUP2 DUP2 SUB PUSH1 0x0 DUP4 ADD MSTORE PUSH2 0x29A DUP2 PUSH2 0x201 JUMP JUMPDEST SWAP1 POP SWAP2 SWAP1 POP JUMP JUMPDEST PUSH1 0x0 PUSH1 0x20 DUP3 ADD SWAP1 POP DUP2 DUP2 SUB PUSH1 0x0 DUP4 ADD MSTORE PUSH2 0x2BA DUP2 PUSH2 0x241 JUMP JUMPDEST SWAP1 POP SWAP2 SWAP1 POP JUMP JUMPDEST PUSH1 0x0 DUP3 DUP3 MSTORE PUSH1 0x20 DUP3 ADD SWAP1 POP SWAP3 SWAP2 POP POP JUMP JUMPDEST PUSH1 0x0 PUSH2 0x2DD DUP3 PUSH2 0x2E4 JUMP JUMPDEST SWAP1 POP SWAP2 SWAP1 POP JUMP JUMPDEST PUSH1 0x0 PUSH20 0xFFFFFFFFFFFFFFFFFFFFFFFFFFFFFFFFFFFFFFFF DUP3 AND SWAP1 POP SWAP2 SWAP1 POP JUMP JUMPDEST PUSH2 0x30D DUP2 PUSH2 0x2D2 JUMP JUMPDEST DUP2 EQ PUSH2 0x318 JUMPI PUSH1 0x0 DUP1 REVERT JUMPDEST POP JUMP JUMPDEST PUSH2 0x153 DUP1 PUSH2 0x32A PUSH1 0x0 CODECOPY PUSH1 0x0 RETURN INVALID PUSH1 0x80 PUSH1 0x40 MSTORE CALLVALUE DUP1 ISZERO PUSH2 0x10 JUMPI PUSH1 0x0 DUP1 REVERT JUMPDEST POP PUSH1 0x4 CALLDATASIZE LT PUSH2 0x36 JUMPI PUSH1 0x0 CALLDATALOAD PUSH1 0xE0 SHR DUP1 PUSH4 0x8DA5CB5B EQ PUSH2 0x3B JUMPI DUP1 PUSH4 0xC45A0155 EQ PUSH2 0x59 JUMPI JUMPDEST PUSH1 0x0 DUP1 REVERT JUMPDEST PUSH2 0x43 PUSH2 0x77 JUMP JUMPDEST PUSH1 0x40 MLOAD PUSH2 0x50 SWAP2 SWAP1 PUSH2 0xD0 JUMP JUMPDEST PUSH1 0x40 MLOAD DUP1 SWAP2 SUB SWAP1 RETURN JUMPDEST PUSH2 0x61 PUSH2 0x9B JUMP JUMPDEST PUSH1 0x40 MLOAD PUSH2 0x6E SWAP2 SWAP1 PUSH2 0xD0 JUMP JUMPDEST PUSH1 0x40 MLOAD DUP1 SWAP2 SUB SWAP1 RETURN JUMPDEST PUSH1 0x0 DUP1 SLOAD SWAP1 PUSH2 0x100 EXP SWAP1 DIV PUSH20 0xFFFFFFFFFFFFFFFFFFFFFFFFFFFFFFFFFFFFFFFF AND DUP2 JUMP JUMPDEST PUSH1 0x1 PUSH1 0x0 SWAP1 SLOAD SWAP1 PUSH2 0x100 EXP SWAP1 DIV PUSH20 0xFFFFFFFFFFFFFFFFFFFFFFFFFFFFFFFFFFFFFFFF AND DUP2 JUMP JUMPDEST PUSH2 0xCA DUP2 PUSH2 0xEB JUMP JUMPDEST DUP3 MSTORE POP POP JUMP JUMPDEST PUSH1 0x0 PUSH1 0x20 DUP3 ADD SWAP1 POP PUSH2 0xE5 PUSH1 0x0 DUP4 ADD DUP5 PUSH2 0xC1 JUMP JUMPDEST SWAP3 SWAP2 POP POP JUMP JUMPDEST PUSH1 0x0 PUSH2 0xF6 DUP3 PUSH2 0xFD JUMP JUMPDEST SWAP1 POP SWAP2 SWAP1 POP JUMP JUMPDEST PUSH1 0x0 PUSH20 0xFFFFFFFFFFFFFFFFFFFFFFFFFFFFFFFFFFFFFFFF DUP3 AND SWAP1 POP SWAP2 SWAP1 POP JUMP INVALID LOG2 PUSH5 0x6970667358 0x22 SLT KECCAK256 RETURNDATACOPY STOP 0xF8 0xD6 TIMESTAMP 0x5E 0x1F 0xF SWAP7 0xE1 PUSH8 0xB5013116844059EC REVERT SELFDESTRUCT 0xE7 0xE9 0x21 0xC6 0xF PUSH9 0x45C1B7726A64736F6C PUSH4 0x43000800 STOP CALLER LOG2 PUSH5 0x6970667358 0x22 SLT KECCAK256 0xD6 0xC5 PUSH26 0x6B76D6D55DDE77AB995A5E37BF06669E44469872A0D28CFB4F6C PUSH7 0xABB064736F6C63 NUMBER STOP ADDMOD STOP STOP CALLER "
        },
        "methodIdentifiers": {
          "createSurvey()": "c65dfc9f",
          "getAllSurveys()": "7a1bc375",
          "owner()": "8da5cb5b",
          "renounceOwnership()": "715018a6",
          "surveyCreationFees()": "a934bafe",
          "surveyOwners(address)": "34819bdc",
          "surveys(uint256)": "86e68b90",
          "transferOwnership(address)": "f2fde38b"
        }
      }
    }
  }
}