{
  "_format": "hh-sol-artifact-1",
  "contractName": "Destructor",
  "sourceName": "contracts/Contract.sol",
  "abi": [
    {
      "inputs": [],
      "name": "destruct",
      "outputs": [],
      "stateMutability": "nonpayable",
      "type": "function"
    }
  ],
  "bytecode": "0x6080604052348015600f57600080fd5b5060848061001e6000396000f3fe6080604052348015600f57600080fd5b506004361060285760003560e01c80632b68b9c614602d575b600080fd5b60336035565b005b3373ffffffffffffffffffffffffffffffffffffffff16fffea26469706673582212206c0bcab3637879c3d1c51836aa6a0345c95f0329108a7075ac8dda15e5b3911e64736f6c63430007050033",
  "linkReferences": {},
  "deployedLinkReferences": {}
}