{
  "_format": "hh-sol-artifact-1",
  "contractName": "CollateralGroup",
  "sourceName": "contracts/CollateralGroup.sol",
  "abi": [
    {
      "inputs": [
        {
          "internalType": "address[]",
          "name": "_members",
          "type": "address[]"
        }
      ],
      "stateMutability": "nonpayable",
      "type": "constructor"
    },
    {
      "inputs": [
        {
          "internalType": "address",
          "name": "asset",
          "type": "address"
        },
        {
          "internalType": "uint256",
          "name": "amount",
          "type": "uint256"
        }
      ],
      "name": "borrow",
      "outputs": [],
      "stateMutability": "nonpayable",
      "type": "function"
    },
    {
      "inputs": [
        {
          "internalType": "address",
          "name": "asset",
          "type": "address"
        },
        {
          "internalType": "uint256",
          "name": "amount",
          "type": "uint256"
        }
      ],
      "name": "repay",
      "outputs": [],
      "stateMutability": "nonpayable",
      "type": "function"
    },
    {
      "inputs": [],
      "name": "withdraw",
      "outputs": [],
      "stateMutability": "nonpayable",
      "type": "function"
    }
  ],
  "bytecode": "0x6080604052737d2768de32b0b80b7a3454c06bdac94a69ddc7a96000806101000a81548173ffffffffffffffffffffffffffffffffffffffff021916908373ffffffffffffffffffffffffffffffffffffffff160217905550736b175474e89094c44da98b954eedeac495271d0f600160006101000a81548173ffffffffffffffffffffffffffffffffffffffff021916908373ffffffffffffffffffffffffffffffffffffffff16021790555073028171bca77440897b824ca71d1c56cac55b68a3600260006101000a81548173ffffffffffffffffffffffffffffffffffffffff021916908373ffffffffffffffffffffffffffffffffffffffff16021790555069021e19e0c9bab24000006003553480156200011d57600080fd5b506040516200126938038062001269833981810160405260208110156200014357600080fd5b81019080805160405193929190846401000000008211156200016457600080fd5b838201915060208201858111156200017b57600080fd5b82518660208202830111640100000000821117156200019957600080fd5b8083526020830192505050908051906020019060200280838360005b83811015620001d2578082015181840152602081019050620001b5565b5050505090500160405250505060005b815160ff168160ff161015620003f257600160009054906101000a900473ffffffffffffffffffffffffffffffffffffffff1673ffffffffffffffffffffffffffffffffffffffff166323b872dd838360ff16815181106200024057fe5b6020026020010151306003546040518463ffffffff1660e01b8152600401808473ffffffffffffffffffffffffffffffffffffffff1681526020018373ffffffffffffffffffffffffffffffffffffffff1681526020018281526020019350505050602060405180830381600087803b158015620002bd57600080fd5b505af1158015620002d2573d6000803e3d6000fd5b505050506040513d6020811015620002e957600080fd5b8101908080519060200190929190505050506004828260ff16815181106200030d57fe5b60200260200101519080600181540180825580915050600190039060005260206000200160009091909190916101000a81548173ffffffffffffffffffffffffffffffffffffffff021916908373ffffffffffffffffffffffffffffffffffffffff160217905550600160056000848460ff16815181106200038b57fe5b602002602001015173ffffffffffffffffffffffffffffffffffffffff1673ffffffffffffffffffffffffffffffffffffffff16815260200190815260200160002060006101000a81548160ff0219169083151502179055508080600101915050620001e2565b50600160009054906101000a900473ffffffffffffffffffffffffffffffffffffffff1673ffffffffffffffffffffffffffffffffffffffff1663095ea7b360008054906101000a900473ffffffffffffffffffffffffffffffffffffffff16600160009054906101000a900473ffffffffffffffffffffffffffffffffffffffff1673ffffffffffffffffffffffffffffffffffffffff166370a08231306040518263ffffffff1660e01b8152600401808273ffffffffffffffffffffffffffffffffffffffff16815260200191505060206040518083038186803b158015620004dc57600080fd5b505afa158015620004f1573d6000803e3d6000fd5b505050506040513d60208110156200050857600080fd5b81019080805190602001909291905050506040518363ffffffff1660e01b8152600401808373ffffffffffffffffffffffffffffffffffffffff16815260200182815260200192505050602060405180830381600087803b1580156200056d57600080fd5b505af115801562000582573d6000803e3d6000fd5b505050506040513d60208110156200059957600080fd5b81019080805190602001909291905050505060008054906101000a900473ffffffffffffffffffffffffffffffffffffffff1673ffffffffffffffffffffffffffffffffffffffff1663e8eda9df600160009054906101000a900473ffffffffffffffffffffffffffffffffffffffff16600160009054906101000a900473ffffffffffffffffffffffffffffffffffffffff1673ffffffffffffffffffffffffffffffffffffffff166370a08231306040518263ffffffff1660e01b8152600401808273ffffffffffffffffffffffffffffffffffffffff16815260200191505060206040518083038186803b1580156200069457600080fd5b505afa158015620006a9573d6000803e3d6000fd5b505050506040513d6020811015620006c057600080fd5b81019080805190602001909291905050503060006040518563ffffffff1660e01b8152600401808573ffffffffffffffffffffffffffffffffffffffff1681526020018481526020018373ffffffffffffffffffffffffffffffffffffffff1681526020018261ffff168152602001945050505050600060405180830381600087803b1580156200075057600080fd5b505af115801562000765573d6000803e3d6000fd5b5050505050610aef806200077a6000396000f3fe608060405234801561001057600080fd5b50600436106100415760003560e01c806322867d78146100465780633ccfd60b146100945780634b8a35291461009e575b600080fd5b6100926004803603604081101561005c57600080fd5b81019080803573ffffffffffffffffffffffffffffffffffffffff169060200190929190803590602001909291905050506100ec565b005b61009c61037c565b005b6100ea600480360360408110156100b457600080fd5b81019080803573ffffffffffffffffffffffffffffffffffffffff169060200190929190803590602001909291905050506107c2565b005b8173ffffffffffffffffffffffffffffffffffffffff166323b872dd3330846040518463ffffffff1660e01b8152600401808473ffffffffffffffffffffffffffffffffffffffff1681526020018373ffffffffffffffffffffffffffffffffffffffff1681526020018281526020019350505050602060405180830381600087803b15801561017b57600080fd5b505af115801561018f573d6000803e3d6000fd5b505050506040513d60208110156101a557600080fd5b8101908080519060200190929190505050508173ffffffffffffffffffffffffffffffffffffffff1663095ea7b360008054906101000a900473ffffffffffffffffffffffffffffffffffffffff16836040518363ffffffff1660e01b8152600401808373ffffffffffffffffffffffffffffffffffffffff16815260200182815260200192505050602060405180830381600087803b15801561024857600080fd5b505af115801561025c573d6000803e3d6000fd5b505050506040513d602081101561027257600080fd5b81019080805190602001909291905050505060008054906101000a900473ffffffffffffffffffffffffffffffffffffffff1673ffffffffffffffffffffffffffffffffffffffff1663573ade8183836001306040518563ffffffff1660e01b8152600401808573ffffffffffffffffffffffffffffffffffffffff1681526020018481526020018381526020018273ffffffffffffffffffffffffffffffffffffffff168152602001945050505050602060405180830381600087803b15801561033c57600080fd5b505af1158015610350573d6000803e3d6000fd5b505050506040513d602081101561036657600080fd5b8101908080519060200190929190505050505050565b600560003373ffffffffffffffffffffffffffffffffffffffff1673ffffffffffffffffffffffffffffffffffffffff16815260200190815260200160002060009054906101000a900460ff166103d257600080fd5b600260009054906101000a900473ffffffffffffffffffffffffffffffffffffffff1673ffffffffffffffffffffffffffffffffffffffff1663095ea7b360008054906101000a900473ffffffffffffffffffffffffffffffffffffffff16600260009054906101000a900473ffffffffffffffffffffffffffffffffffffffff1673ffffffffffffffffffffffffffffffffffffffff166370a08231306040518263ffffffff1660e01b8152600401808273ffffffffffffffffffffffffffffffffffffffff16815260200191505060206040518083038186803b1580156104ba57600080fd5b505afa1580156104ce573d6000803e3d6000fd5b505050506040513d60208110156104e457600080fd5b81019080805190602001909291905050506040518363ffffffff1660e01b8152600401808373ffffffffffffffffffffffffffffffffffffffff16815260200182815260200192505050602060405180830381600087803b15801561054857600080fd5b505af115801561055c573d6000803e3d6000fd5b505050506040513d602081101561057257600080fd5b8101908080519060200190929190505050506000600480549050600260009054906101000a900473ffffffffffffffffffffffffffffffffffffffff1673ffffffffffffffffffffffffffffffffffffffff166370a08231306040518263ffffffff1660e01b8152600401808273ffffffffffffffffffffffffffffffffffffffff16815260200191505060206040518083038186803b15801561061557600080fd5b505afa158015610629573d6000803e3d6000fd5b505050506040513d602081101561063f57600080fd5b81019080805190602001909291905050508161065757fe5b04905060005b60048054905060ff168110156107be5760008054906101000a900473ffffffffffffffffffffffffffffffffffffffff1673ffffffffffffffffffffffffffffffffffffffff166369328dec600160009054906101000a900473ffffffffffffffffffffffffffffffffffffffff1684600485815481106106da57fe5b9060005260206000200160009054906101000a900473ffffffffffffffffffffffffffffffffffffffff166040518463ffffffff1660e01b8152600401808473ffffffffffffffffffffffffffffffffffffffff1681526020018381526020018273ffffffffffffffffffffffffffffffffffffffff1681526020019350505050602060405180830381600087803b15801561077557600080fd5b505af1158015610789573d6000803e3d6000fd5b505050506040513d602081101561079f57600080fd5b810190808051906020019092919050505050808060010191505061065d565b5050565b600560003373ffffffffffffffffffffffffffffffffffffffff1673ffffffffffffffffffffffffffffffffffffffff16815260200190815260200160002060009054906101000a900460ff1661081857600080fd5b60008054906101000a900473ffffffffffffffffffffffffffffffffffffffff1673ffffffffffffffffffffffffffffffffffffffff1663a415bcad838360016000306040518663ffffffff1660e01b8152600401808673ffffffffffffffffffffffffffffffffffffffff1681526020018581526020018481526020018361ffff1681526020018273ffffffffffffffffffffffffffffffffffffffff16815260200195505050505050600060405180830381600087803b1580156108dd57600080fd5b505af11580156108f1573d6000803e3d6000fd5b5050505060008060009054906101000a900473ffffffffffffffffffffffffffffffffffffffff1673ffffffffffffffffffffffffffffffffffffffff1663bf92857c306040518263ffffffff1660e01b8152600401808273ffffffffffffffffffffffffffffffffffffffff16815260200191505060c06040518083038186803b15801561097f57600080fd5b505afa158015610993573d6000803e3d6000fd5b505050506040513d60c08110156109a957600080fd5b8101908080519060200190929190805190602001909291908051906020019092919080519060200190929190805190602001909291908051906020019092919050505095505050505050671bc16d674ec800008111610a0757600080fd5b8273ffffffffffffffffffffffffffffffffffffffff1663a9059cbb33846040518363ffffffff1660e01b8152600401808373ffffffffffffffffffffffffffffffffffffffff16815260200182815260200192505050602060405180830381600087803b158015610a7857600080fd5b505af1158015610a8c573d6000803e3d6000fd5b505050506040513d6020811015610aa257600080fd5b81019080805190602001909291905050505050505056fea26469706673582212207aa5a1ad4f74bcba9cb29adf1e316b4eca5ded2a59e65be710af792d2b2a506e64736f6c63430007050033",
  "linkReferences": {},
  "deployedLinkReferences": {}
}